:020000040000FA
:108000005021002009830000118300000196000028
:108010000000000000000000000000000000000060
:108020008F9E939B01999697FD000000B9810000F7
:1080300000000000000000005D820000BD82000022
:108040001B8300001B8300001B8300001B830000B8
:108050001B8300001B8300001B8300001B830000A8
:108060001B8300001B8300001B8300001B83000098
:108070001B830000299D00001B8300001B83000060
:108080001B8300001B8300001B8300001B83000078
:108090001B8300001B8300001B8300001B83000068
:1080A000119E00001B8300001B8300001B83000047
:1080B0001B8300001B8300001B8300001B83000048
:1080C00000F002F800F030F80CA030C8083824188E
:1080D0002D18A246671EAB4654465D46AC4201D100
:1080E00000F022F87E460F3E0FCCB6460126334202
:1080F00000D0FB1AA246AB463343184758B10000E4
:1081000078B100000023002400250026103A01D396
:1081100078C1FBD8520700D330C100D50B6070473F
:108120001FB51FBD10B510BD00F070FB1146FFF765
:10813000F7FF05F02FFF00F088FB03B4FFF7F2FF15
:1081400003BC00F039FB000080F309887047EFF3AF
:1081500009807047684680F3098806480078C007A0
:1081600003D1032080F314887047022080F3148821
:108170007047000034210100064B9C46EFF3058355
:108180001B0605D1EFF31483DB0701D000DF704736
:108190006047000035EC0000064B9C46EFF305837A
:1081A0001B0605D1EFF31483DB0701D000DF704716
:1081B0006047000049EE0000EFF309808169891EE5
:1081C0000978002933D1A6461FC8A4467446E04763
:1081D0001F4B06CB914224D0083B002910D00CB491
:1081E000203101234B70EFF30983203B4B60F0C338
:1081F00044464D4656465F46F0C307F0BBF80CBCFC
:108200001A60203253681033F0CBA046A946B2461C
:10821000BB4683F30988203BF0CB5078002803D07D
:108220001078EFF3098318600223DB43184710B579
:10823000084A1268914209D8074C89006458A6463A
:108240001FC8A446F047EFF309840FC410BD000017
:10825000A8F1FF1FF0880000F088000006F070FF12
:10826000154B06CB914223D0083B0CB420310023A0
:108270004B70EFF30983203B4B60F0C344464D46FF
:1082800056465F46F0C307F075F80CBC1A60203202
:1082900053681033F0CBA046A946B246BB4683F3E1
:1082A0000988203BF0CB5078002801D01078186165
:1082B0000223DB4318470000A8F1FF1F07F012F963
:1082C000CEE7000006F042F807F00CF9C8E700001E
:1082D00070B505460C46164602E00FCC0FC5103EA1
:1082E000102EFAD2082E02D303CC03C5083E042E6A
:1082F00007D301CC01C5361F03E021782970641C27
:108300006D1C761EF9D270BD0748804707480047AC
:10831000FEE7FEE7FEE7FEE7FEE7FEE70448054965
:10832000054A064B70470000799C0000C1800000A0
:10833000501F0020502100205020002050200020FD
:1083400000487047EC1E002010B5002000F03AFAFB
:10835000FFF7E8FE012000F02FFA10BD034610B52C
:108360000B439B070FD1042A0DD308C810C9121F55
:10837000A342F8D018BA21BA884201D9012010BD11
:108380000020C04310BD002A03D0D30703D0521CE5
:1083900007E0002010BD03780C78401C491C1B1B13
:1083A00007D103780C78401C491C1B1B01D1921E7D
:1083B000F1D1184610BD000030B5441C03E001782F
:1083C000401C00290DD08107F9D10B4BDD0104C8F9
:1083D000D11A91432940FAD0001B0A0603D0C01ECF
:1083E00030BD001B30BD0A0401D0801E30BD090223
:1083F000FCD0401E30BD00000101010170477047F4
:10840000FFFFFFFFFFFFFFFFFFFFFFFFFEFFFFFF7D
:108410000346F0B50B439B072DD1244DEF01042AF1
:1084200029D308C810C95E1B9E43121F3E4017D0B7
:10843000D8B2E1B2401A3106014310D198B2A1B2CC
:10844000401A310401430AD118022102000A090A24
:10845000401A3102014302D1180E210E401AF0BD1C
:10846000A342DCD018BA21BA884201D90120F0BD5C
:108470000020C043F0BD002A01D10020F0BD0378E8
:108480000C78401C491C002B0DD0A3420BD1521E6E
:1084900009D003780C78401C491C002B03D0A34260
:1084A00001D1521EEBD1181BF0BD000001010101EA
:1084B000421E5378521C002BFBD10B78491C1370C1
:1084C000521C002BF9D17047F8B5042A2CD383072E
:1084D00012D00B78491C0370401C521E83070BD02E
:1084E0000B78491C0370401C521E830704D00B7884
:1084F000491C0370401C521E8B079B0F05D0C91AE4
:10850000DF002023DE1B08C90AE0FFF7E1FEF8BD0B
:108510001D4608C9FD401C46B4402C4310C0121F24
:10852000042AF5D2F308C91A521EF0D40B78491C5C
:108530000370401C521EEAD40B78491C0370401C87
:10854000012AE4D409780170F8BD431A70B593424A
:108550001BD28918801804E0491E401E0B78521E59
:1085600003709307F8D106E01039103878C9103934
:1085700078C01038103A102AF6D203E0091F001F05
:108580000B680360121FF9D570BDFFF7A1FE70BD27
:10859000F8B5064614460843800707D0751AA54269
:1085A00019D20819102D13D2311907E03046FFF700
:1085B000CCFFF8BD401E491E02780A70641EF9D235
:1085C000F8BD471B2A463946FFF77EFF641B384635
:1085D000A542F6D3011B22463046FFF775FFF8BDD2
:1085E000D2B210B513029A1813049A1800F00EF8BC
:1085F00010BD01E004C0091F0429FBD28B0701D57F
:108600000280801CC90700D00270704700290BD07F
:10861000C30702D00270401C491E022904D38307FD
:1086200002D50280801C891EE3E70022EEE70022CB
:10863000DFE78178C2780378090412061143427893
:108640001002184308437047020A08704A70020C6F
:108650008A70020ECA707047002203098B422CD325
:10866000030A8B4211D300239C464EE003460B4382
:108670003CD4002243088B4231D303098B421CD3E4
:10868000030A8B4201D394463FE0C3098B4201D3D6
:10869000CB01C01A524183098B4201D38B01C01A0E
:1086A000524143098B4201D34B01C01A5241030985
:1086B0008B4201D30B01C01A5241C3088B4201D334
:1086C000CB00C01A524183088B4201D38B00C01AE1
:1086D000524143088B4201D34B00C01A5241411A08
:1086E00000D201465241104670475DE0CA0F00D0EB
:1086F0004942031000D34042534000229C460309E4
:108700008B422DD3030A8B4212D3FC22890112BA69
:10871000030A8B420CD3890192118B4208D3890141
:1087200092118B4204D389013AD0921100E0890959
:10873000C3098B4201D3CB01C01A524183098B423A
:1087400001D38B01C01A524143098B4201D34B0123
:10875000C01A524103098B4201D30B01C01A524186
:10876000C3088B4201D3CB00C01A524183088B420D
:1087700001D38B00C01A5241D9D243088B4201D396
:108780004B00C01A5241411A00D201466346524181
:108790005B10104601D34042002B00D54942704780
:1087A00063465B1000D3404201B50020C046C0467E
:1087B00002BD70477047704701491820ABBEFEE705
:1087C0002600020010B500F009F800F001F810BD15
:1087D00010B5002801D0FFF7EFFF10BD10B5002144
:1087E00002A000F03AF8012010BD000053494741B3
:1087F0004252543A2041626E6F726D616C20746512
:10880000726D696E6174696F6E0000007546FFF7E6
:1088100097FDAE46050069465346C008C000854630
:1088200018B020B5FFF77AFD60BC00274908B646AE
:108830000026C0C5C0C5C0C5C0C5C0C5C0C5C0C56F
:10884000C0C5403D49008D46704710B50446C0463E
:10885000C0462046FFF771FC10BD70B505460C46BA
:108860000A2000E06D1C00F012F8002D06D02878D8
:108870000028F7D102E0641C00F009F8002C02D0B7
:1088800020780028F7D10A2000F001F870BD08B563
:10889000694608700320ABBE08BD70B58C1805781A
:1088A000401C6B075B0F01D10378401C2A1106D1D5
:1088B0000278401C03E00678401C0E70491C5B1EC9
:1088C000F9D12B0705D40023521E0DD40B70491C7F
:1088D000FAE70378401CCB1A921C03E01D780D7058
:1088E000491C5B1C521EF9D5A142D8D3002070BD93
:1088F00000000000F8B502787F2A02D000F018F8D6
:10890000F8BD0A704478861C4C708D1C074F08E037
:108910002946304600F00CF8010C3F188E1980B241
:108920004519641EF4D23846F8BD0000020002006A
:10893000F8B502781346803B1F2B02D800F036F9B9
:10894000F8BD0A704C1C01780025FF27904A914E13
:10895000401C0B0003F074FE170D37405DB8C5E1F5
:10896000F2F16E77F2F2F2F2F27B7F83939DB3B66F
:10897000F2000178601C0022062920D006DC0B00E2
:1089800003F05EFE051D1D1D1D0D1D00F0290CD000
:10899000FD2914D0FE290FD0FF2910D107E00522B0
:1089A0007D49FFF791FD052209E0112105E04021F5
:1089B00001704570022202E0052101700122774812
:1089C00022701018F8BD007800283AD0012838D05D
:1089D00027707248401EC4E00078002805D00128A6
:1089E00004D0002020703046BBE00120012111702E
:1089F0006B4920234B6040254D608A154A604F69C2
:108A00001F434F614B692B434B614B6913434B61D0
:108A1000E8E763481570416920229143416141694B
:108A2000402291434161426981158A434261257028
:108A3000012096E041780278080210430001401EB0
:108A4000FDD12570C5E765702570022089E02146BB
:108A500000F08EFB85E0214600F058FB81E00778AE
:108A6000401C002F01D1FF2701370146384601F095
:108A7000DDF8FF1D2570F8080004801971E000780A
:108A80008107890F491C40071175C00F507525706B
:108A9000A9E72770012203781446401C0AE00178F8
:108AA000401C8906890E00D14021C91DC908401803
:108AB0005218521C5B1EF2D21004204351E0007881
:108AC0002770D9E727708EE701781172837847788D
:108AD0001902394351810179C37808021843908102
:108AE00050E012782146012A14D00346401C027837
:108AF000401C002A08D00778401CBC0701D5FC06A2
:108B000000D5001D521EF6D1C01A0D7000044D7024
:108B1000801C26E000F0D0F823E0074610782146BC
:108B200001280CD00D704D70A5700320F9781D4AF6
:108B3000890708D5104301460CE00DE024E03846D3
:108B400000F050FAF2E7B9787B78090219438904FA
:108B500089180143084604E01178012903D02770E1
:108B600011488019F8BDC178027909041206114331
:108B7000827843781002184301430091694600202F
:108B800000F0E2FD2570EBE7203CE7773046F8BDCA
:108B9000F0F2FF1F01000100882001000200020026
:108BA00080F00F400000040001000500FEB50278CF
:108BB0000A704D1C01783D4C401C80390646671CEC
:108BC0000B0003F03DFD0D0816223840717171470E
:108BD00055606468710005F05DF80746FFF7ECFB2F
:108BE000C6B22E70681C32463946FFF76DFCA419D8
:108BF00027E00724684601F0DDFA22466946284648
:108C0000FFF762FC294C08344EE0684601F0D2FAC6
:108C1000002002900422314602A8FFF755FC02987A
:108C20000090684601F0E6FA002001F063FB0120A5
:108C300028701F4C38E03E21681C07F0F3FE2870B6
:108C40002418641C30E03778401C394607F058FF80
:108C5000012025E0012028703078002805D0012867
:108C600003D000202870134C1EE005F017FBFAE734
:108C70000120287003F0DCFE002802D1022007F05A
:108C80008DFC3C4610E0007806F0E0FDEAE706F0D7
:108C9000A9FD2870F5E73778401C394606F07EFEBE
:108CA00028703904081904192046FEBD010001008E
:108CB0000200050002000200F0B589B008900446E9
:108CC00000208D1C0391C549029008700490059006
:108CD0006678A41C002E71D02778641CB9076ED565
:108CE0000499002935D0BE484089019011203840B0
:108CF00001280FD16946384600F026FD02281AD116
:108D00000199491E0191491C03D0B44909780029F1
:108D1000F0D016E169460E2000F016FD022808D1B9
:108D20000199491E0191491C03D0AC4909780029D9
:108D3000F0D0002104910128EBD10099297000990D
:108D4000090A69700099090CA9700099090EE97067
:108D50002D1DF9065AD5A078E178000409060843CC
:108D60006178227809021143084307909C48241D2A
:108D700080890690F80715D0994840890190002114
:108D8000384600F0E1FC022802D00128C1D109E0F8
:108D90000199491E0191491CBBD0904909780029CD
:108DA000EDD0CEE08E48408901906946384600F00B
:108DB000CBFC022804D001281CD10BE0E2E064E0E7
:108DC0000199491E0191491C14D084490978002950
:108DD000EBD00FE08249009A09691140079A91424D
:108DE00008D00699491E0691491C03D07B49097891
:108DF0000029D7D07A49009A09691140079A91420F
:108E000001D01021084301281AD13CE07449498956
:108E10000191F90718D00499002934D1002138466E
:108E200000F092FC022802D0012809D109E0019942
:108E3000491E0191491C03D0684909780029EDD0E9
:108E40007FE0012104911EE06946384600F07CFC79
:108E5000022802D0012874D109E00199491E01912C
:108E6000491C6ED05D4909780029EDD069E0009970
:108E700029700099090A69700099090CA970009974
:108E8000090EE9702D1D00214FE00498002823D021
:108E900053484089019069460E2000F055FC022895
:108EA00002D001284DD109E00199491E0191491CC8
:108EB00047D04A4909780029EDD042E0009828704F
:108EC0000098000A68700098000CA8700098000EC6
:108ED000E87000202D1D0490A078E17800040906B8
:108EE000084361782278090211430843241D009049
:108EF000B90603D53A490861012017E0384840898E
:108F000001906946384600F01FFC022802D0012873
:108F100017D109E00199491E0191491C11D02F492F
:108F200009780029EDD00CE0012105910299491C36
:108F300002912A490978002903D1761E00D0CBE698
:108F40000AE0002E08D02178641C8A0701D5C906E2
:108F500000D5241D761EF4E7012832D1049900299A
:108F60001ED01F481D4F468969460E2000F0ECFBBD
:108F7000022802D0012824D105E0761E21D33978B9
:108F80000029F1D01DE0009929700099090A697043
:108F90000099090CA9700099090EE9702D1D10E0C7
:108FA000059900290DD00E480C4F468900210E204E
:108FB00000F0CAFB022804D1761E02D339780029BA
:108FC000F4D0039A02991170039948700898039994
:108FD000201A0004691A084309B0F0BD04F0FF1F0D
:108FE000F0F2FF1FF0B585B00026CF1C0291454975
:108FF000054630460E70A9786A780C02ED1C1443C1
:1090000075D029786D1C0091890760D50099C90732
:1090100037D03D4845890021009800F095FB022893
:1090200002D0012863D12CE06D1E60D33549097848
:109030000029F0D05BE0002C04D10098C00701D0DB
:109040000E2000903048458901A9009800F07CFB73
:10905000022802D001284AD106E06D1E47D32949D3
:1090600009780029F0D042E0019939700199761C05
:10907000090A79700199090CB9700199090EF97002
:109080003F1D641ED7D232E0A878E97800040906B3
:10909000084369782A7809021143084301901A4865
:1090A0002D1D4089039001A9009800F04DFB022876
:1090B00002D001281BD109E00399491E0391491CE4
:1090C00015D0104909780029EDD010E0761C641EF7
:1090D000DAD20D480B4D448900210E2000F034FBFC
:1090E000022804D1641E02D329780029F4D0029901
:1090F0000E70029A310A517002998870029805B078
:10910000381AF0BD04F0FF1FF0F2FF1FF8B50C464F
:109110008178C2780904120611434278037810025C
:109120001843104F014307D00F4800260F4D8142CE
:1091300005D30120687010E0FF2020700FE00A487E
:109140006E70401E0818FFF787FA012804D9032122
:10915000401CFFF781FA00E0012068602670384665
:10916000F8BD00000100040000366E01F0F2FF1FA0
:10917000F0B50479457924042D062C43C57803788D
:10918000427886782802304304432F48D50706D01A
:10919000DE072025002E01D0456000E085609507A0
:1091A00006D59E074025002E01DA456000E0856067
:1091B000150606D5DD09EE07244D01D0456000E017
:1091C00085600026002C2ED0214DAC4200D92C46C3
:1091D000204DAE6130277C436C6105242C61D4079F
:1091E00004D00469A406E40F9C4217D1940705D566
:1091F00004695F086406E40FBC420FD1540701D52F
:109200009C080BD1940601D55C0907D1140609D539
:109210000469DF09E405E40FBC4203D02C69E403D0
:10922000E40FDCD02E61026903699206D20F5B065F
:10923000DB0F5B0000691A43C005C00FC001024389
:109240000A700548F0BD000080F00F4000010000EA
:10925000C0C62D0000E000E00100060010B5164871
:109260000021017041700322426001726422428138
:10927000818101220161027541751048816B1F22B5
:10928000520211438163FF200D49033048610D48AC
:1092900020224260436913434361FF2404348C61FC
:1092A000402242604369934343610C6281154160EF
:1092B00042690A43426110BDF0F2FF1F0080044082
:1092C00000B0044080F00F4070B50546EFF3108009
:1092D000C407E40F72B6094E094B29463046F268BE
:1092E00000F010F8002805D1002329463046F26826
:1092F00000F000F9002C00D162B670BD54110020BE
:109300006B66656BFFB589B016460C466A460998D0
:1093100004F03AFA32462146049B099803F0F7FF1D
:1093200005002BD1009C019FA619761E39463046B8
:10933000FFF792F900291BD0401C7843461E17E026
:1093400021020920090A000609180D4841600C98FD
:1093500003F0F6FF002811D1099803F0FBFF054642
:1093600009980069002800D08047002D02D1E41937
:10937000B442E5D9099803F09DFF28460DB0F0BD31
:109380000000024070B5040027D01648C0680001F4
:10939000000F0F2823D014494000085A80020025EE
:1093A000256060600120A0606561A5618002256183
:1093B000E060204603F09DFF00280AD00B480146DC
:1093C00080390560416040318160E061204600F0F5
:1093D0000FF825620020656270BD042070BD012079
:1093E0004004DCE7408004406425010008120020AE
:1093F00070B5002822D0C46916484022410816489A
:109400004900400840006568884202D9421A402A53
:1094100012D82846FFF758F81148104E4108114855
:109420006D1C35604008402249004000A568884214
:1094300006D9421A402A03D9FEF786FF042070BDE0
:109440002846FFF741F86D1C02207560206000205F
:1094500070BD00006DDA000079DA000028F1FF1F0E
:10946000DDD20000F1D20000FFB589B01F46140024
:109470000D460DD06A46099804F086F93A46294609
:10948000039B099803F043FF060002D1009D28E0EA
:1094900004200DB0F0BD02CC154881600399042969
:1094A00002D0082907D00EE029020322090A520639
:1094B0008918416007E002CCC16029020722090A2D
:1094C000120689184160099803F044FF064609987E
:1094D0000069002800D08047002E04D10398451968
:1094E0003F1A002FD7D1099803F0E4FE3046D0E7A9
:1094F00000000240FFB589B014460D466A4609983F
:1095000004F042F922462946059B099803F0FFFE24
:1095100000282FD16A462946099804F035F9009DA4
:10952000029808906942404201404F42AF4201D147
:1095300008983F18002C1CD07E1BA64200D9264656
:1095400030460599FFF788F829020122090A120618
:109550008A1809494A600C9A000412021043FF302D
:109560008860099803F0F6FE002803D1A41BAD190A
:10957000DEE700200DB0F0BD00000240FFB589B06D
:10958000129F1D0016460C4610D06A46099804F03A
:10959000FBF832462146079B099803F0B8FE0028E5
:1095A00005D1154A39068F18009C22E004200DB021
:1095B000F0BD21020120090A400609180F48416048
:1095C00087602968C160099803F0C4FE002809D0AB
:1095D0001399002900D00C6014990029E7D00022CB
:1095E0000A60E4E70799761A890889004D190799F6
:1095F0000C19002EDDD1DAE7FFFFFF00000002406A
:10960000EFF3088470460007000F0D2801D1EFF337
:1096100009842546A08B2035800500D52D1D704678
:10962000C00600D44835704603F06AFAEFF30980AB
:1096300003F066FAEFF3088003F062FAEFF31480A8
:1096400003F05EFA284603F05BFA606903F058FA0B
:10965000A06903F055FAE06903F052FA4A2203A127
:10966000002003F03DF800F053FBFEE72E2E5C2EA9
:109670002E5C2E2E5C736F757263655C6461706C1A
:10968000696E6B5C486172644661756C745F4861B9
:109690006E646C65722E630010B5EFF31080C00726
:1096A000C00F72B60021064A1160002800D162B6D0
:1096B0000448FFF767FE002800D0012010BD00001D
:1096C00000810440541100201CB506F0A9FB0028BD
:1096D00018D09E2069460870E7204870102000F0DE
:1096E000A5FA06F09DFB00280CD000206946087002
:1096F000082000F09BFA01A9002006F027FB0128B2
:1097000000D000201CBD0000FEB5074616460D46E1
:10971000EFF31080C407E40F72B60B4639460948D0
:10972000FFF7A2FE002809D10121019000910290CB
:1097300033462A4639460348FFF720FF002C00D164
:1097400062B6FEBD5411002000B5054A5278002AC9
:1097500002D000F007F800BD00F0E0F800BD000006
:10976000F0F2FF1FF0B58C466A4E40210246716050
:109770002027B7607760C00701D0716000E0B1605A
:10978000B76077605008C40701D0716000E0B16035
:10979000B760776013189008C40701D0716000E0CB
:1097A000B160B76077601B18D008C40701D0716042
:1097B00000E0B160B76077601818C00701D0716031
:1097C00000E0B160B7607760B160B76077607160EA
:1097D000B76077607069884370614F48007D041EF0
:1097E00003D0B7607760401EFBD1B7603069776007
:1097F0004006C00FB760336977605B06DB0F5B0024
:109800000343B760306977604006C00F800018439B
:1098100001280DD002285DD004285BD0213403D06C
:10982000B7607760641EFBD172690A4372616FE0B2
:10983000920726D500231C462022B7603569776041
:109840006D06ED0F64195B08ED072B43521EF4D132
:10985000B760326977605206D20F5440E20700D0F9
:1098600008206246002A00D013602B4A127D002A8D
:1098700003D0B7607760521EFBD172690A437261F0
:109880001EE0002C03D0B7607760641EF9E77269B0
:109890000A4372616246126800242023D50701D072
:1098A000716000E0B160B7607760A41852085B1E79
:1098B000F4D1E20701D0716000E0B160B760776079
:1098C000154A127A002A23D0B160B7607760521E21
:1098D000FBD11DE0104B5D7D002D06D0930704D514
:1098E0002123B76077605B1EFBD1002C03D0B760EB
:1098F0007760641EF9E773690B437361002D07D02D
:10990000920705D4B1602122B7607760521EFBD167
:109910007160F0BD80F00F40F0F2FF1FF0B503461C
:109920000022C04D40208C4668602024AC60BE4FB1
:1099300079680E46761EFDD16C600E46761EFDD10E
:10994000DE0701D0686000E0A860AC600E46761EBD
:10995000FDD16C600E46761EFDD1D6185A08D70789
:1099600001D0686000E0A860AC600F467F1EFDD1AA
:109970006C600F467F1EFDD1B6189A08D70701D03C
:10998000686000E0A860AC600F467F1EFDD16C608F
:109990000F467F1EFDD1B618DA08D70701D06860E0
:1099A00000E0A860AC600F467F1EFDD16C600F46E2
:1099B0007F1EFDD1B218D20701D0686000E0A86018
:1099C000AC60994E0A46521EFDD16C600A46521E8A
:1099D000FDD1A860AC600A46521EFDD16C600A46FB
:1099E000521EFDD16860AC600A46521EFDD16C600B
:1099F0000A46521EFDD16A69402082436A61327D67
:109A0000161E09D0AC600846401EFDD16C600846A9
:109A1000401EFDD1521EF5D1AC600846401EFDD15E
:109A200028696C604006C00F0A46521EFDD1AC602A
:109A30000A46521EFDD12A696C605206D20F0F46AB
:109A40007F1EFDD152000243AC600846401EFDD18E
:109A500028694006C70F202068600846401EFDD1D7
:109A6000B8001043012816D002286ED004286CD00C
:109A700021360AD02023AB600A46521EFDD16B600E
:109A80000A46521EFDD1761EF5D169694022114366
:109A900069616A60F0BD9A073CD500242646202300
:109AA0002027AF600A46521EFDD12A696F60520618
:109AB000D20F0F467F1EFDD16708D407B6183C436E
:109AC0005B1EEDD120232A46AB600F467F1EFDD1E1
:109AD000176953607F06FF0F491EFDD17E40F107D5
:109AE00000D008206146002900D00C604E490C7D52
:109AF000002C0AD04E6893603146491EFDD1536058
:109B00003146491EFDD1641EF5D1516940231943E8
:109B1000516139E0002E0AD02023AB600A46521E64
:109B2000FDD16B600A46521EFDD1761EF5D16A69E1
:109B300040231A436A6162460026126820242746A1
:109B4000D30703D040236B6002E032E04023AB60D8
:109B5000AF600B465B1EFDD16F600B465B1EFDD1F7
:109B6000B6185208641EEBD1F20702D040226A6098
:109B700001E04022AA603B462C46AF600A46521ED6
:109B8000FDD16360491EFDD127490A7A002A0DD014
:109B90004023AB604B682024AC601946491EFDD1C0
:109BA0006C601946491EFDD1521EF5D140216960F5
:109BB000F0BD1D4A527D9446002A0DD09A070BD560
:109BC00021242027AF600A46521EFDD16F600A464D
:109BD000521EFDD1641EF5D1002E0AD02024AC60A7
:109BE0000A46521EFDD16C600A46521EFDD1761EF9
:109BF000F5D16A69402422436A616246002A0ED088
:109C00009A070CD4AC6021232026AE600A46521E6F
:109C1000FDD16E600A46521EFDD15B1EF5D16C600F
:109C2000F0BD000080F00F40F0F2FF1FF0B5002300
:109C3000104C1A460E4E2027656815E0002A02D106
:109C40000B780822491CDC0702D04024746001E034
:109C50004024B460B7602C46641EFDD177602C466A
:109C6000641EFDD15B08521E401EE7D2F0BD00000D
:109C700080F00F40F0F2FF1F1E48002202601E48D5
:109C8000816B4315194381631B491C48403148606F
:109C90001B4883681B490B408360C3680B40C3604B
:109CA000194980200870194824214170A2210170AF
:109CB000C178C906C90EC170032101714271817951
:109CC000C906FCD481790907890F0229FAD14021FC
:109CD000417181790907890F0229FAD181794906F1
:109CE000FCD51A21017081790907890F0329FAD15E
:109CF0007047000000810440008004400000011013
:109D000040900440FFF8FFFE00500640004006402F
:109D1000BFF34F8F03490248C860BFF34F8FFEE780
:109D20000400FA0500ED00E038B5254D2C79E878FF
:109D3000800601D420208443E878000601D48020E6
:109D40008443200616D51F4802F06FFD002800D07E
:109D50000120E7221CA102F0C3FC1A4802F086FD94
:109D6000E871184802F061FD002803D1E878400648
:109D7000400EE870A00605D56007800F03D0E87993
:109D80006946087038BDED791B4802F03DFD044678
:109D9000132804D92946184802F0A4FD38BD02F062
:109DA00057FE002807D0132CF8D1132213A1124814
:109DB00002F0E9FD38BD104802F058FDEAE7000066
:109DC00000B00640141200202E2E5C2E2E5C2E2E8B
:109DD0005C736F757263655C6869635F68616C5C16
:109DE000667265657363616C655C6B6C32367A5C58
:109DF000756172742E630000241400203C444150AD
:109E00004C696E6B3A4F766572666C6F773E0A00EE
:109E1000F8B52E4E002435780095280741D5317CC1
:109E20000A090807C00F4B07DB0F154605431AD177
:109E3000950040002818C018254BC0001D5CAD06D9
:109E40002D0F012D0FD1C5186F88002F0BD1214F79
:109E5000BA5C6A801A5C520601D5882200E0C822EA
:109E60001A5401200143EFF31080C507ED0F72B6BD
:109E7000194A184F143FB86811541521401CFEF7B9
:109E8000EBFBB960002D00D162B608203070002CC9
:109E900002D1307D800601D5012400E00024357810
:109EA000BBE700990B482943083804F056FC002C06
:109EB00001D0012000E00020064914390A7810433F
:109EC0000870357002F068FBF8BD00008020074084
:109ED0000018002098F1FF1FA01D002000207047EF
:109EE000034801694069081A02490988081A70473D
:109EF00024F2FF1FAA25010070B50B4D0C46034646
:109F0000696B286B88420BD9401A844200DD0446F5
:109F100022461846FEF7D8FA686B0019686300E01D
:109F20000024204670BD000024F2FF1F002070476F
:109F3000F8B5184F0C46064679693869401A164933
:109F40000988081A002801DC0020F8BD844200DDE1
:109F50000446FA69B869002590420DD30F4A0319E7
:109F600051188B4208D30D1A2A463146FEF7ACFA37
:109F700076190A48641BB861002C06D02246314687
:109F8000FEF7A2FAB8690019B861396960190918B1
:109F90003961F8BD24F2FF1FAA2501003617002001
:109FA00010B5054C6068002805D10120606000F004
:109FB00005F80020606010BD24F2FF1FF8B5234CA7
:109FC000A06800283DD0616920690026421AE06837
:109FD00011460143002935D021461D4FC9691D4D49
:109FE000002A10D0A069814205D338888B18281820
:109FF000834200D3421A1848007843001748C05AD9
:10A00000904200DA02461648E66000788023184342
:10A0100002F0EAFAE1690918E16162691218626105
:10A020003B88EB188B4200D1E561216991420BD14D
:10A03000094909784A000949895A814204D1012015
:10A04000E060F8BDA660F8BDE660F8BD24F2FF1F31
:10A05000AA2501003617002067F2FF1FAE25010078
:10A06000A825010010B50C4C206A002803D0A06A76
:10A07000401CA06210BD01202062606200F00EF85A
:10A08000002060622062616B206B8842F2D0401A2F
:10A09000FFF74CFF10BD000024F2FF1F10B5134C5A
:10A0A0001348216B154B0A1A12480088821A12486D
:10A0B00000784000185A82420EDB1148007801F007
:10A0C0002DFE216B08182063A06A00280CD0616A5D
:10A0D000002909D1401E06E00120E062606A0028E4
:10A0E00002D0A06A401CA06210BD000024F2FF1F35
:10A0F00076170020AC25010067F2FF1FAE25010096
:10A10000A925010010B50446400702D52046FFF7F7
:10A11000A9FF200702D52046FFF742FF10BD00200F
:10A12000704700207047000010B50C4800F042F85E
:10A13000002812D00948FEF77CFA0949020A087083
:10A140004A70020C8A70000EC870044802790A71C5
:10A1500042794A7180798871012010BD5CF2FF1F3D
:10A160003416002010B51048002444608460C46098
:10A1700004610E4981614461046244628462C46284
:10A18000C1610B4901634163014604804B203831B2
:10A19000C001FEF759FA04480821383004714471AF
:10A1A000817100F019F810BD24F2FF1F361700204E
:10A1B0007617002070B50446064D21462868FEF744
:10A1C00043FA2879A07168796071A879207101201B
:10A1D00070BD0000E8F2FF1F10B506F0EBFB03F0C6
:10A1E0000DFF012010BD10B506F026FC012010BDAA
:10A1F0000120704710B50446FEF71BFA06490860B7
:10A20000A079087160794871207988710020C8713F
:10A21000084606F027FC10BDE8F2FF1F10B51148F4
:10A22000002444608460C46004610F49816144611A
:10A23000046244628462C462C1610C490163416387
:10A240000480FFF7D0FF07494B203831C001FEF7EB
:10A25000FBF9044808213830047144718171FFF71B
:10A26000C9FF10BD24F2FF1F36170020761700200B
:10A2700010B5FFF7D3FF10BD70B51B48007800285C
:10A2800031D01A4C0025206A012600280AD1616BC2
:10A29000206B884206D11649884203D02163E562CB
:10A2A00025626163A06A002810D0206A00280DD1C1
:10A2B000E06A00280AD12662FFF7F0FE2562616B92
:10A2C000206B884202D0401AFFF730FEA168606818
:10A2D000084308D161692069884204D06660A6609D
:10A2E000FFF76CFE656070BD65F2FF1F24F2FF1F73
:10A2F00076170020B0B505460F480068C169884749
:10A30000002817D10D4C0E4F002D06D0BC4600DFA3
:10A310002060002006F042F90CE0BC4600DF216816
:10A32000401AFF212D31884201D3012000E0002096
:10A3300003F072FE0120B0BD6C210100E4F2FF1FAA
:10A3400021F50000002070470020704710B5024939
:10A350000880FFF74DFF10BD24F2FF1F10B50C4C15
:10A36000A078E178000409060843617822780902A0
:10A37000114308430749FEF767F90648217901713F
:10A3800061794171A1798171FFF734FF10BD00003F
:10A39000341600205CF2FF1F01078A0E044910B535
:10A3A00051180A78FD231A400A7002F08FF810BD88
:10A3B000C020074010B501464A790B798078110218
:10A3C0001943020601D4024A115402F07FF810BD6D
:10A3D00098F1FF1F704710B500F016FB10BD00008C
:10A3E000094A094980320028087D04D00123184316
:10A3F0000875102005E0400840000875107AEF212C
:10A4000008401072704700008020074010B50C4CC7
:10A410000C48A2880078824200D90246002A03D163
:10A4200007490020143908718020216802F0DCF807
:10A43000216809182160A188081AA08010BD0000B9
:10A4400078F2FF1F8825010010B5064C0020A28875
:10A45000216801F063FC216809182160A188081AAD
:10A46000A08010BD78F2FF1F704700000749020668
:10A4700005D50007800E40180178FA2203E080001D
:10A4800040180178F622114001707047C020074043
:10A490000749020605D50007800E401801780522FD
:10A4A00003E08000401801780922114301707047D1
:10A4B000C0200740F8B504466F4F704D704E8007BE
:10A4C00020D502F05FF83878C009FFF7CDFFF88893
:10A4D000A88038784106890F04D001295CD0022970
:10A4E00075D169E079780B0002F0AAF80C070D71BC
:10A4F00013711928712D333B4A7101F0B1FD1FE032
:10A50000FFF784FF70E0002004E002F04FF85D48A0
:10A510003DE0012001F0E6FD002858D0F5E7C00637
:10A52000C00E54D1B8788021084330704006400EE8
:10A53000012102F011F802F039F855E001F07EFC3B
:10A54000002844D0DCE7C006C00E40D14C48401C77
:10A5500014E001F01BFE002839D002F027F84A4829
:10A5600015E0C006C00E012831D1707800282ED029
:10A570003879B17888422AD2444940182860BFE728
:10A5800001F0C8FE002822D002F010F84048006810
:10A59000002829D0804727E0C006C00E17D0012828
:10A5A00015D100F017F900281ED100F06FF900282E
:10A5B0001AD100F0BBF808E0C006C00E07D100F0C9
:10A5C0009FF9002810D100F0E7F900280CD1387865
:10A5D000C00904D1F888002801D0002000E08020C4
:10A5E00001F0C4FF0020A880600704D53878C009B6
:10A5F0000DD001F0E3FF200733D53878C00927D00C
:10A60000A888317908432CD0FFF700FF29E0A888FB
:10A610000028F0D0FFF718FFA8880028EBD1387881
:10A620004106890F0ED001290CD1C006C00E09D0F9
:10A63000012807D100F05CF80028DCD100F02AF8EE
:10A640000028D8D1802001F091FF0020A880D2E717
:10A650003078010605D54006400E3070002101F02B
:10A660007BFF600602D50020FFF796FE200602D58C
:10A670008020FFF791FEF8BD80F2FF1F78F2FF1FE8
:10A6800064F2FF1F102601000826010077F1FF1F6A
:10A690000C26010010B51349134A0879127890422C
:10A6A00003D0124A1278904219D14878002804D079
:10A6B000022805D0202812D10EE0FFF743FE05E066
:10A6C000C878897800020843FFF73EFE002806D0CC
:10A6D00001F06CFF012010BDFFF740FEF6E70020FF
:10A6E00010BD000080F2FF1FA6250100A725010074
:10A6F00010B50B490B4A08791278904203D00A4AE8
:10A70000127890420AD14878092807D100F080FBDE
:10A71000002803D001F04AFF012010BD002010BD29
:10A7200080F2FF1F892501008A25010070B52449A8
:10A73000244A08791278904203D0234A1278904232
:10A740003BD11F484978C278837810021F4C204DB6
:10A750001843042920D008DC00290FD001290FD08C
:10A7600002290BD0032928D111E0202906D0212964
:10A7700019D022291AD023291FD11AE02C6010E009
:10A78000FFF7CFFC05E02C60FFF740FE09E0FFF784
:10A79000C6FC0028F7D110E0FFF7A0FB0BE001F0AA
:10A7A00005FF012070BDFFF7BFFCF2E7FFF7CEFD0C
:10A7B00001E0FFF79FFD0028F1D1002070BD0000EF
:10A7C00080F2FF1FA6250100A725010034160020F6
:10A7D00078F2FF1FF8B5254E25493079097888426F
:10A7E00003D02449097888423DD17078224C234D0A
:10A7F000234F030001F024FF0C3707232D37373791
:10A8000037371826333700F021FA00282BD0F0789C
:10A81000012802D0032803D003E01A48206000E09A
:10A820002560FFF7F3FD12E0F078022802D003283C
:10A8300003D00CE01448206009E0256007E000F038
:10A84000EDF908E000F0BCFA0BE001F0AFFE0120EA
:10A85000F8BD00F0F1F9002805D02760E1E700F02D
:10A86000CDFA0028F1D10020F8BD000080F2FF1FD2
:10A87000892501008A25010078F2FF1F82F1FF1F60
:10A880003416002075160020B616002010B51848A2
:10A89000184A01791278914227D142780146C87846
:10A8A0008B7800021843CB798C7919022143FE2A58
:10A8B0000CD0FF2A19D1002817D1002915D101F099
:10A8C0006DF9002811D001F071FE0CE000280CD1C8
:10A8D00001290AD100F04CFE002806D0074906489D
:10A8E0000860FFF793FD012010BD002010BD00009F
:10A8F00080F2FF1F9C2501003416002078F2FF1F14
:10A9000070B51F4D1F49687809780026884235D1F7
:10A91000687929790002084302282FD1AA781A4CB5
:10A92000002A2BD0002004E02178002900D00C1947
:10A93000401C411C8A42F7D82078002819D003F027
:10A9400053F90146E01CFDF7B3FD104A01261460DF
:10A95000E979AB7920780902194381420BD90C4976
:10A9600090800978491E084206D10A4901200870E2
:10A9700002E0002602E09180FFF748FD304670BDFE
:10A9800080F2FF1FB225010038F1FF1F78F2FF1F90
:10A990008825010068F2FF1F10B5154A1549507847
:10A9A00009780024884220D15079117900020843A7
:10A9B00007281AD1114B10481860417A007A090211
:10A9C0000143D0799279000201241043884209D9C9
:10A9D0000B4899800078401E014204D109490120AA
:10A9E000087000E09880FFF711FD204610BD0000C0
:10A9F00080F2FF1FB32501004E26010078F2FF1FF1
:10AA00008825010068F2FF1F074800214170C160DE
:10AA100001614161418081808161C161C1800181A9
:10AA2000016241817047000088F2FF1FF8B5494E6E
:10AA3000B0887188484F00257C1C884218D3B069C3
:10AA4000002815D17561B580012339787A1C184624
:10AA500006F0D8FA70807088002809D03F487761E6
:10AA60000078012801D8746102E07088401C708071
:10AA7000708800283AD1F068002801D0F56035E0F0
:10AA80003069002832D03549097801290ED83D7047
:10AA9000B58002237A1C0021012006F0B3FA7080F1
:10AAA0007088002800D0746135611FE03C78012770
:10AAB000202C00D300243946A14001421AD0601C4A
:10AAC000C1B2254A02231170B5800120521C06F044
:10AAD00099FA70807088002804D01F4870617088CF
:10AAE000401C70803069A740B843306170880028EE
:10AAF00006D102E0641CE4B2DAE7B069002826D08F
:10AB00007088B188164F401A84B2387841001548D1
:10AB1000405AA04200D204461348802100782246C1
:10AB20000843716901F060FD706910490019706196
:10AB3000B088001980B2B0800988884208D238787D
:10AB400041000848405AA04202D10120B061F8BD3E
:10AB5000B561F8BD88F2FF1F74160020962501002C
:10AB600067F2FF1F922501008B2501009825010047
:10AB7000F8B51C4C002620891B4D1C4F002803D122
:10AB8000E5613888E0802681E0882189421A1848EA
:10AB9000E169007801F0C2F8E16980B20918E16169
:10ABA000218909188BB22381002809D039888B426A
:10ABB00006D21049104A09784900515A814210D9E9
:10ABC0000E48017801200129009003D80021064A8F
:10ABD000022003E029786A1C02205B1E06F09AFA24
:10ABE0002681F8BD88F2FF1FB51600209A250100C6
:10ABF0008C25010067F2FF1F9225010097250100B7
:10AC000010B50446000702D52046FFF70FFF600786
:10AC100002D52046FFF7ACFF10BD000003480449F1
:10AC20008078085C034908700120704780F2FF1F9C
:10AC300080F1FF1F3416002010B506F0E1F902493B
:10AC40000870012010BD00003416002010B50B491B
:10AC50000022C878012804D0022804D0032806D195
:10AC600003E0074A02E0002010BD064A521C897822
:10AC7000002306F0C7F9012010BD000080F2FF1F7D
:10AC80007416002081F1FF1FFEB5444800780028AB
:10AC90007ED0434E002031788446481C30704148B5
:10ACA000042300784200821893405B1E019299426F
:10ACB00003DB0021317001218C463B4A00251188BD
:10ACC000FF2901D2491C118041003848405A3649B9
:10ACD00000900988884200D1012535490020097873
:10ACE0008E4648E000216246002A0DD0314A135CAE
:10ACF000FF2B01D25B1C13542F4B1B5C002B03D08A
:10AD0000125C9A4200D301212B4A0223145C019A5F
:10AD1000934022469A40009B9A4203DA002C01D0CD
:10AD2000012200E00022002D06D0002A04D00123D9
:10AD3000376983403B433361204B1B5C9C420CD002
:10AD40001C4C245C9C4206D30124376984403C435C
:10AD5000346100243470184C2354002909D0002A8F
:10AD600004D101213269814011433161114A00212E
:10AD70001154401CC0B27045B4D3002D02D00A4912
:10AD8000002008803069002806D07088002800E084
:10AD900002E001D1FFF74AFEFEBD000065F2FF1F91
:10ADA00088F2FF1F67F2FF1F7CF1FF1F8E25010055
:10ADB000962501007EF1FF1F7FF1FF1F80F1FF1F2D
:10ADC0000A480A498078C978002802D0084A815484
:10ADD00009E0094B0020074A1B7802E01154401C8F
:10ADE000C0B29842FAD301207047000080F2FF1FE2
:10ADF0007FF1FF1F80F1FF1F9625010010B503486A
:10AE0000807806F085F9012010BD000080F2FF1F58
:10AE100038B50D490022C878012804D0022804D092
:10AE2000032806D103E0002038BD084A00E0084AA4
:10AE3000521C00230093CB798C791B022343897821
:10AE400006F068F9012038BD80F2FF1FB51600201A
:10AE500081F1FF1FF8B5EFF31080C007C00F72B685
:10AE6000564D0021EC68E9602A780092297000288C
:10AE700000D162B6E00708D001F0E2FA06F01CFA51
:10AE80004F480068002800D08047E00606D501F052
:10AE9000A1FB4C480068002800D08047A00606D5DA
:10AEA00001F04CFB48480068002800D0804760074C
:10AEB00004D546480068002800D08047022C09D1FC
:10AEC00043480168002902D04248007A8847414837
:10AED000FF210172200767D53F4FEFF31080C207B3
:10AEE000D20F72B6A9686868884257D1012156E02E
:10AEF000EFF31081CE07F60F72B638490C5C1521BE
:10AF0000401CFDF7A9FB6960002E00D162B6204607
:10AF10002207D30F21066207090FD20F002908D19B
:10AF20005C00A418E4003C5D0026A406240F0D2C50
:10AF30000AD08C005B00E3189A18D600BA5D92061E
:10AF4000120F012A13D01DE02869022188432861CD
:10AF5000387E4006400E3876387C4006400E387405
:10AF60001F486E7001680029B7D0022014E0002944
:10AF700002D1C007C00F687019480159002901D0DB
:10AF800004208847B85D8006000F0928A5D1144821
:10AF900001590029A1D0082088479EE70021002AF6
:10AFA00000D162B60029A3D00098002804D0094936
:10AFB000087DDF2210400875F8BD000084F1FF1FF6
:10AFC000B4250100B8250100BC250100C025010001
:10AFD000C42501008020074000180020A01D00208B
:10AFE000C825010010B51C48402303701B48416868
:10AFF0000522120411434160416B1A03114341635E
:10B0000000F036F81648017B802211430173017B62
:10B010000906FCD41349124C090A803C21771149D6
:10B020000A0C0F4960390A740E4A120E0A75FF2184
:10B0300021700D490968002900D004210B4A1268CB
:10B04000002A00D0022211431922114321710370FA
:10B05000017B1943017310BD98F1FF1F008004406C
:10B060000021074000180020C0250100C425010070
:10B0700001200249000608607047000000E100E07E
:10B0800070B500F019F900282AD01648022404707F
:10B090004470154E03203463307014480546FDF7A4
:10B0A000C8FA022808D9114920461F39FDF7CCFA01
:10B0B00029462046FDF7C8FA0D488021007822462F
:10B0C0000843084901F090FA2846FDF7B2FA316BBF
:10B0D000401A2946FDF7B8FA0449012008390873D7
:10B0E00070BD0000F6160020ACF2FF1FE71E002026
:10B0F0009D25010010B510490878022808D00328C2
:10B100000FD0042810D0052801D10020087010BDF0
:10B110000A48C07B282801D0A828F8D100F06CFA92
:10B1200010BD00F07DFD10BD05488021007808436A
:10B1300000F090FDF5E70000ACF2FF1FC01E0020FC
:10B140009D25010010B51D4A117800290FD0012955
:10B1500010D01B48052900781BD0072927D000F004
:10B1600079FD18490220087300F05AFD10BD00F067
:10B170000FF910BD13481F38C07B2A2803D02F2891
:10B1800004D0AA28F5D100F015FB10BD00F0A2FAFA
:10B1900010BD012181400C480068014201D001200E
:10B1A00000E00020094A0AA101F09AFA10BD00202F
:10B1B0001070106B1F28DAD010BD0000ACF2FF1F1A
:10B1C0009E250100DF1E002070F2FF1F41040000D9
:10B1D0002E2E5C2E2E5C2E2E5C736F757263655C5A
:10B1E0007573625C6D73635C757362645F6D7363CA
:10B1F0002E63000010B5144C6068E060002801D098
:10B20000012010BD1148FDF714FA002814D00F4892
:10B210000838007B000604D50D48802100780843DB
:10B2200008E00A481F30FDF704FA216B884203D07A
:10B230000848007800F00EFD04490120173108731A
:10B2400000F0EEFC002010BDACF2FF1FC81E002075
:10B250009D2501009E25010010B5124801798F201F
:10B260000140080605D50807000F0122120482409C
:10B2700001E001228A400C480478802004438C427B
:10B280000ED10A48006810420AD00948FDF7D1F9EA
:10B290000849884204D10D220549204601F0A4F94D
:10B2A00010BD000080F2FF1F9D25010070F2FF1FFE
:10B2B000DF1E00205553425370B50C48FDF7B9F915
:10B2C0000A4C02251734002808D020461F38007B7E
:10B2D000000608D40648007800F0BCFC257300F096
:10B2E0009FFC002070BD012070BD0000C81E002022
:10B2F0009E25010070B51148FDF79BF9104C216B9C
:10B30000884202D82063032000E0042020700D480A
:10B3100080210078226B08430B4901F065F907484A
:10B320001F300546FDF785F9216B401A2946FDF7C8
:10B330008BF9024900201731087370BDC81E002028
:10B34000ACF2FF1F9D250100F616002010B506483F
:10B35000064902880648007800F0E0FC05490863C9
:10B36000FFF7F0FE10BD0000A4250100F616002036
:10B370009E250100ACF2FF1F10B50446400702D520
:10B380000020FFF7E3FF200701D5FFF7B3FE10BD54
:10B39000F8B5704E316B1F2901D20A4600E01F221A
:10B3A00000206D4D6D4B02E01C5C2C54401C904203
:10B3B000FAD36B48802200780127104300901F29A0
:10B3C00070D16548FDF735F9664988426AD1281D74
:10B3D000FDF72FF9604C1F34211DFDF735F920468C
:10B3E0001738FDF726F921460831FDF72DF9687B5E
:10B3F000002804D1A87B002801D0102801D9277388
:10B4000074E0E87B2A283BD020DC1A2847D00EDCE9
:10B410000428F4D006DC00283BD00328EFD100F04C
:10B420007BFBF8BD1228EAD100F0AAF8F8BD23286A
:10B430003CD006DC1B282FD01E28E0D100F0CCF831
:10B44000F8BD252835D02828D9D13BE09E2836D014
:10B450000EDC5528D3D004DC2F2842D03528CED19D
:10B4600003E05A281FD09128C9D100F023FCF8BD71
:10B47000A12821D0A3284ED0A82823D0AA28BED105
:10B4800000F084FA0028F2D0287B00063BD4377005
:10B49000F8BD00F019FCF8BD00F0F2FBF8BD00F0BB
:10B4A00047FAF8BD3BE000F011FAFAE700F0F8FACD
:10B4B000F7E700F0CFFAF4E7FFF7E2FDF1E700F07D
:10B4C00083FBEEE700F062FA0028EAD0287B000652
:10B4D00004D50220307000F08FF8E2E722480078AF
:10B4E00015E0287C800704D40020207300F098FB2E
:10B4F000D7E700F04BFA0028D3D0287B000602D40F
:10B5000037703762CDE7164880210078084300F095
:10B51000A1FB0220E9E7009800F09CFB6FE7104CCC
:10B52000009800F097FB2078104C0107090F0120CC
:10B530000004884021680C4D08432060287800F002
:10B5400089FB2878874020680743062027603070F1
:10B55000A7E70000ACF2FF1FC01E0020F616002077
:10B560009D250100555342439E25010074F2FF1FA3
:10B5700002490020087001207047000034160020A6
:10B5800010B5FFF799FE00281FD0104B002018704F
:10B590008021597002219970D97020241C71587132
:10B5A0009871D8710A48016808200A78002A02D0E8
:10B5B0001A54491C00E01C54401CC0B22428F4D387
:10B5C000044924200863FFF795FE10BDF6160020FD
:10B5D00034F1FF1FACF2FF1F10B50548C07CC10756
:10B5E000044800D00121017300F01AFB10BD0000D7
:10B5F000C01E0020DF1E0020F8B5314D314FA96973
:10B60000686A002688420AD33878802100240843DB
:10B6100000F020FB2C48067300F002FB08E02B48EA
:10B62000007841002A48445AE86A844200D304461C
:10B63000FFF7E0FD002800D10024A86A00282DD0E3
:10B64000002C0ED0A96AE86980224118387810438E
:10B65000224600F0C9FFA86A0019A862E86A001B28
:10B66000E86229696869AA6A4143914203D1AE62DE
:10B67000696A08186862144808300746FCF7D9FF61
:10B68000001B3946FCF7E0FF002C06D0E86A0028D2
:10B6900003D1032028700C480673F8BD002CE0D0BD
:10B6A0002969E86A4018401EFCF7D6FF696902461E
:10B6B000884200D90A46E969686A05F0BDFDC1E71C
:10B6C000ACF2FF1F9D250100DF1E002067F2FF1F67
:10B6D000A0250100F8B5334C0025A169606A8842B5
:10B6E00008D331482563007800F0B4FA2F48057379
:10B6F00000F096FAFFF77EFD002806D0206B0028A8
:10B7000024D0A06A002802D010E025631EE0216941
:10B71000E06A4018401EFCF79FFF616902468842BC
:10B7200000D90A46E169606A05F086FD00202049DB
:10B73000A76A266B08E0E3693A189A5C0B5C9A42A8
:10B7400001D0256202E0401CB042F4D3266BA06A0F
:10B750008119A162E06A871BE7622269606942433E
:10B760008A4203D1A562616A081860620F480830F6
:10B770000546FCF75EFF801B2946FCF765FF002E9F
:10B780000CD0002F02D02078052807D1206A00288D
:10B7900005D000200549087300F042FAF8BD0120E9
:10B7A000F8E70000ACF2FF1F9E250100DF1E00201D
:10B7B000F6160020F8B5384D384FA969686A00269A
:10B7C000884207D336482E63007800F043FA3E7370
:10B7D00000F026FAFFF70EFD002800D12E63296B3A
:10B7E000A86A40182969884206D9FF2201322DA192
:10B7F000002000F075FFF8BD0020334905E0AB6A7A
:10B800000A5C1B18EC69401CE2542A6B9042F6D388
:10B81000A86A8018A862E96A891AE962002A25D014
:10B82000002914D1002812D029694018401EFCF7C5
:10B8300013FF69690446884200D90C462246E9692B
:10B84000686A05F011FDAE62686A00190DE0696969
:10B850002B690A465943814208D1E969686A05F0B3
:10B8600003FDAE626969686A401868620B48083077
:10B870000090FCF7DEFE2C6B0099001BFCF7E4FE49
:10B88000002CB8D0E86A002802D028780528B2D168
:10B890003E7300F0C5F9F8BDACF2FF1FDF1E0020BB
:10B8A0009E2501002E2E5C2E2E5C2E2E5C736F7555
:10B8B0007263655C7573625C6D73635C75736264FF
:10B8C0005F6D73632E630000F616002070B5FFF7FE
:10B8D000F3FC002824D0FFF78DFC002820D011486D
:10B8E00000210170062242700F4B81701A7A0824E1
:10B8F000D201C270017141718171C1710B481C6329
:10B900000546FCF796FE082808D9084920461F3945
:10B91000FCF79AFE29462046FCF796FEFFF7EAFC64
:10B9200070BD0000F6160020ACF2FF1FE71E0020DD
:10B9300070B5FFF7C1FC002820D0FFF75BFC0028A2
:10B940001CD00F480321017000210E4B41701A7A60
:10B950000424D2018270C1700B481C630546FCF7B9
:10B9600068FE042808D9084920461F39FCF76CFEF8
:10B9700029462046FCF768FEFFF7BCFC70BD0000BE
:10B98000F6160020ACF2FF1FE71E0020F8B52D4E82
:10B990002D4FB07C717C0002084340BA0404354648
:10B9A000E87C761C00020443287D044300207C626E
:10B9B000B862E87B2F280AD004DC28280BD02A287C
:10B9C0001ED104E0A82810D0AA2819D109E0FFF759
:10B9D00011FC002832D0E87DA97D0002084344BA5A
:10B9E0000EE0FFF707FC002828D0707D317D0002B3
:10B9F000084340BA0404E87D00020443287E04435F
:10BA0000386944430F48FC620830FCF712FE0D4FC2
:10BA100001261F3700280DD0A04210D0287B000639
:10BA200004D50A4880210078084301E008480078DE
:10BA300000F010F93E7300F0F3F80020F8BD01208B
:10BA4000F8BD0000C01E0020ACF2FF1F9D250100C4
:10BA50009E25010010B5FFF72FFC00281AD0FFF734
:10BA6000C9FB002816D00C4A0C489169491E0B0EE0
:10BA700003700B0C43700B0A8370C17011690B0EBD
:10BA800003710B0C43710B0A8371C17108201063A1
:10BA9000FFF730FC10BD0000ACF2FF1FF6160020CF
:10BAA00070B5FFF709FC00282ED0FFF7A3FB002894
:10BAB0002AD0164800210170417081700821144A73
:10BAC000C17091690C240B0E03710B0C43710B0AAE
:10BAD0008371C1710221017211690B0C43720B0A4F
:10BAE0008372C1720B4814630546FCF7A2FD0C2853
:10BAF00008D9084920461F39FCF7A6FD29462046EB
:10BB0000FCF7A2FDFFF7F6FB70BD0000F616002063
:10BB1000ACF2FF1FE71E002070B5FFF7CDFB002839
:10BB20002ED01B487021017000211A4B41705A68B9
:10BB3000DD681446AC4306D00624847028240473C0
:10BB40004173DA600AE0002A1BD0134A127B002AF4
:10BB50001BD005228270202202734173C1700171D3
:10BB6000417181710A22C271017241728172C17286
:10BB70008173C1730174417412201863FFF7BAFB1B
:10BB800070BD022282703A22E6E781700173E4E719
:10BB9000F6160020ACF2FF1FDF1E002010B505498D
:10BBA000002008600449FCF74FFD04490720087095
:10BBB000012010BD74F2FF1FDF1E0020ACF2FF1F3A
:10BBC00010B5FFF7EBFF10BD70B5FFF775FB002850
:10BBD0001DD00F482022027000214170C1770D4C0A
:10BBE0000320226320700C48802100780843084914
:10BBF00000F0FAFC09480546FCF71BFD216B401AD2
:10BC00002946FCF721FD054901200839087370BD5C
:10BC1000F6160020ACF2FF1F9D250100E71E002054
:10BC200010B508490848FCF70FFD08488021007846
:10BC30000D220843034900F0D7FC05490520087090
:10BC400010BD0000DF1E0020555342539D2501000A
:10BC5000ACF2FF1F10B5044600F088FC200605D5A5
:10BC60002107090F01200004884001E00120A040C5
:10BC700002490A681043086010BD000070F2FF1FFF
:10BC800010B50A48817C04461F34002904D00120E5
:10BC90002073FFF7C5FF10BDC07C0549C007C00F6A
:10BCA000486005F0DFFA0020F2E70000C01E002027
:10BCB000ACF2FF1F10B5034900200873FFF7B0FF77
:10BCC00010BD0000DF1E002010B51048FCF7B1FCCD
:10BCD0000E4C173400280FD020461F38007B00067A
:10BCE00004D50B4880210078084301E0094800781A
:10BCF000FFF7B0FF012004E0FFF77CFA002803D033
:10BD000000202073FFF78CFF10BD0000C81E00202C
:10BD10009D2501009E25010070470000F7B50746EC
:10BD200082B0002000903807860E3348F5002818AE
:10BD300001904488002F15D130484078002809D060
:10BD40007008012181402D48103002F012FD0020C2
:10BD500005B0F0BD2848405D8006000F0D2801D1D8
:10BD6000012000900498A04206D2FF22EF3224A1C5
:10BD7000002000F0B5FC049C1F4A0020B101A03255
:10BD8000891803E0039A0B5C1354401CA042F9D3BA
:10BD90001A481430C15D0198174F41801748760842
:10BDA0000069795DF040C0074906C00FC90F88429D
:10BDB0000FD10398C17982790802009910430029B4
:10BDC00001D000280CD001210C48B140103002F005
:10BDD000D0FC0A480069F040C00708D0C82007E03E
:10BDE00006480121C943103002F0ABFCF1E788207E
:10BDF00078552046ACE700000018002084F1FF1FB2
:10BE00002E2E5C2E2E5C2E2E5C736F757263655C1D
:10BE10006869635F68616C5C667265657363616CB9
:10BE2000655C757362645F6B696E657469732E63BC
:10BE30000000000010B5FFF70FFA10BD7CB5534BA2
:10BE4000534D1878534CC006C00E02D0012875D14E
:10BE500085E05149D8780E784D49CA781C318978E7
:10BE6000062810D006DC012809D0022815D00328A6
:10BE700064D149E007282FD00F285FD15FE0474801
:10BE80002060122069E0002E7ED0002A03D04448B2
:10BE900020600A2061E04348FAE7002E01D1012A20
:10BEA00072D0002A03D04048009000200CE03F48A8
:10BEB000FAE7009A1378002B05D0D37896781B0206
:10BEC00033439A180092401C8142F2D100980178C5
:10BED000002959D020603CE0002E55D0002A03D024
:10BEE0003348009000200CE03248FAE7009A1378BB
:10BEF000002B05D0D37896781B0233439A18009212
:10BF0000401C8142F2D1E1E72B480090032901D087
:10BF1000002009E001F0C2FE0DE000990A78002A35
:10BF200001D051180091401C99788142F5D10098B8
:10BF30000178002928D0206000780EE024E01F4816
:10BF4000007800281FD01E4800902060017800294A
:10BF50001AD0C178827808021043019005E001A947
:10BF6000684600F031F800280DD0A1880198814280
:10BF700008D980B21349A0800978491E084201D12E
:10BF80000120287101207CBD00207CBD80F2FF1FB4
:10BF900064F2FF1F78F2FF1F832501003A2601009B
:10BFA0004D2601004C260100BD270100312701006C
:10BFB000BF270100BE270100C02701008425010022
:10BFC000F82601008825010070B51A4A1A4CD3786A
:10BFD0001A4A25781478174A194E1279212B02D063
:10BFE000222B24D118E0AA4201D0A2421FD1154A27
:10BFF0001378154A002B127801D1012A17D0002A94
:10C0000008D0124A02601046114A12888018306027
:10C01000092009E00F4AF5E7AA4201D0A24206D161
:10C020000D4830600D4800880860012070BD002078
:10C0300070BD000080F2FF1F892501008A250100E4
:10C0400078F2FF1F8325010067F2FF1FBD27010063
:10C050003826010031270100142601003626010090
:10C0600070B51D481D4B0078C106C90E0AD01D468B
:10C070001948143D1A4C6A780079012906D0022922
:10C0800028D10AE015480E38186021E0002A21D096
:10C09000A97888421ED2002016E08F2108400106B0
:10C0A00005D50607360F01210904B14001E0012141
:10C0B0008140002A01D100070CD1A868084209D0AC
:10C0C000E868084000D001202070000A60701C6001
:10C0D000012070BD002070BD80F2FF1F78F2FF1FAD
:10C0E0003416002070B5274B024618781946C00652
:10C0F0004988254EC00E04D001282BD0022829D112
:10C1000011E0012926D10224002A05D0012000F0E7
:10C1100069FAF088204304E0002000F063FAF08818
:10C12000A043F0802CE01C798F200440200605D528
:10C130002007000F01252D04854001E00125A540C1
:10C140007078002806D0200704D0B068284201D0BB
:10C15000002901D0002070BD002A05D0204600F043
:10C1600005FAF06828430AE03069284208D12046E1
:10C17000FEF712F92046FFF75DFEF068A843F06075
:10C18000012070BD80F2FF1F64F2FF1FF8B55A480E
:10C1900000260178C906C90E7ED1574F80781C3F12
:10C1A00000287FD0554801783846C078002901D151
:10C1B000012871D0002801D0514C6CE0514C6AE04C
:10C1C0006078022804D0042846D0052861D145E0D3
:10C1D000494861798078814239D178702079B87086
:10C1E0004A490020484A0B8802E000211154401CB3
:10C1F0009842FAD301250120B968A840084202D02C
:10C200002846FEF733F901200004B968A840084227
:10C2100004D0284680210843FEF728F96D1C102D14
:10C22000E9D33B48B8600020F86038613D46012002
:10C23000FEF7D0F8E079400604D5E98801200143F3
:10C24000E98026E0E88840084000E88021E0E078C6
:10C25000A178000208431DE0E6781AE0002E18D10C
:10C26000A5788F200540280605D52907090F01204C
:10C270000004884001E00120A840B968014320463D
:10C28000B960FEF797F82846FEF702F9284600F055
:10C290001DF92078041901E029E003E02078002846
:10C2A0008ED11FE0002501247D7080260120B96811
:10C2B000A040084202D02046FEF7D8F80120000432
:10C2C000B968A040084203D020463043FEF7CEF8BC
:10C2D000641C102CEAD3FD600D483D61B86000205D
:10C2E000FEF778F8044879788078884201D00020F9
:10C2F000F8BD0120F8BD000080F2FF1F832501007A
:10C30000BD2701003127010077F1FF1F86250100BD
:10C3100001000100F0B585B000274448039701975C
:10C3200000783E46C006C00E01287DD13F491C3929
:10C330004878002875D0002002903D4802780846D1
:10C34000C078002A01D101286ED0002801D0394CD4
:10C3500063E0394C61E06078022804D004280DD0F5
:10C36000052858D11CE0314861791C384078814259
:10C3700051D0E078A178000208434DE0A778E67834
:10C380000020019029480179B94244D18078B04217
:10C3900041D1012002902948C15D0391C6553AE080
:10C3A00022490879B84236D1A0788F2210400090F7
:10C3B0000006009804D50007000F01252D0400E0B9
:10C3C000012585408878B04214D118481C3881680E
:10C3D00029438160C168A943C1602046FDF7EAFF97
:10C3E0000098FEF755F8009800F070F8019828437F
:10C3F000019010E0039886420DD1019828420AD19D
:10C400000A481C388168A9438160C168A943C1609A
:10C410000098FEF72BF820780419207800289AD18C
:10C42000029805B0F0BDFFE70020FAE780F2FF1F99
:10C4300083250100BD2701003127010077F1FF1F8F
:10C4400070B501261A48360606600120194D0024F1
:10C45000810049190C70401C1028F9D31521164889
:10C46000FCF7E5F81548164944608460C460047020
:10C47000447040224A800A46A0324A60C8220A70AC
:10C480000C72104ACC614A610D2129700E4901617C
:10C4900008484038017D022211430175FF210170D7
:10C4A00001720173047602488038066070BD000096
:10C4B00080E100E0C0200740A01D002084F1FF1FA4
:10C4C000001800202019002055555555F8B505468F
:10C4D000154F2C073E4600060121A03E240F0028E0
:10C4E0000EDA6000401C8140104802F036F920024C
:10C4F000C11960018019803141610021C161F8BD1D
:10C5000068008140C943094802F01BF907486101EE
:10C51000001D425D881942802202D21942608822A1
:10C52000725400210172F8BDA018002094F1FF1F81
:10C5300010B5FDF79DFEFFF743FB10BD02480179E2
:10C54000DF221140017170478020074010B5FEF7CF
:10C550009BFBFDF791FE10BD002903D14006024967
:10C56000400E087670470000802007400007810ECB
:10C570000348081801780222114301707047000037
:10C58000C020074010B5082202490020FFF7C6FB73
:10C5900010BD000080F2FF1F10B503488168012024
:10C5A000400201F0E5FC10BD60F0FF1F10B5002255
:10C5B0001146802000F018F810BD000010B50348A7
:10C5C000034902780020FFF7A9FB10BD8825010070
:10C5D000341600200248017920221143017170476E
:10C5E0008020074070470000F8B50007114F840E07
:10C5F0001646A41CE200D01946803D460023A00147
:10C60000A035451902E0C85CE8545B1CB342FAD37C
:10C61000094960080969C140C90701D0882100E0C3
:10C62000C821B954012181400348103002F0A1F81B
:10C630003046F8BD0018002084F1FF1F002070472D
:10C6400030B47446641E2578641CAB4200D21D468B
:10C65000635D5B00E31830BC184710B5002A06DAAA
:10C6600052005208D21DD308DB00102203E0D21C76
:10C6700093089B000C22002B02D09C188C4201D9FD
:10C68000012010BD82188360411802604160C91A00
:10C69000D018884202D810600246F9E700201060E6
:10C6A00010BD0000B0B5044602F09EFF002804D083
:10C6B000034F0249BC46206800DFB0BDFFFF000009
:10C6C000D5F00000B0B5044602F08EFF002803D07C
:10C6D000024F2068BC4600DFB0BD00002DF0000016
:10C6E000F8B516460F4600281BD1EFF31080C5079A
:10C6F000ED0F72B600231A461946184600F024FAC8
:10C70000040003D13146384600F070FA002D00D104
:10C7100062B6002C05D1EFF30380C00601D105F00D
:10C72000BBF8F8BD7047000010B528220D490E482F
:10C73000FBF7CEFD05F080F90C4805F077F904F021
:10C7400087FF0B49012208600A4952020A600A4A1F
:10C75000012111600949400A08600A490848086037
:10C7600010BD0000A82101001C0600202DD10000F2
:10C77000E0F2FF1FBCF2FF1FC0F2FF1FC4F2FF1F59
:10C780001C040020C8F2FF1F00B591B0FDF7A8FB04
:10C79000402801D9402001E000280DD081B2684630
:10C7A00004F040F9010007D06846FDF7C1FB0028FE
:10C7B00002D0012001F00AFC04F0C2F90146402831
:10C7C00001D9402101E000290DD06846FDF794FB16
:10C7D000002808D081B2684604F092F9002802D0FF
:10C7E000012001F0F3FB01F009FC11B000BD0000D5
:10C7F000044841788078814201D0012070470020B0
:10C8000070470000FCF0FF1F30B50546EFF31080C5
:10C81000C407E40F72B6284600F007F8A968081AA2
:10C82000401E002C00D162B630BDEFF31081CB0763
:10C83000DB0F72B606C808388A4201D3501A02E0EC
:10C8400080681018401A002B00D162B67047EFF3D1
:10C850001083DB07DB0F72B68260C16000210160CC
:10C860004160002B00D162B67047000070B50446ED
:10C87000EFF31080C507ED0F72B603CC083C884279
:10C8800001D0012000E0002043220DA1FFF728FF86
:10C89000E16820680E5C401C2060A16888420AD3D1
:10C8A000884201D1012000E00020482204A1FFF7C6
:10C8B00017FF00202060002D00D162B6304670BD09
:10C8C0002E2E5C2E2E5C2E2E5C736F757263655C53
:10C8D0006461706C696E6B5C636972635F627566DC
:10C8E0002E63000070B50446EFF31080C507ED0F0E
:10C8F00072B66268E06881546068401C6060A1683C
:10C9000088420AD3884201D1012000E00020312270
:10C9100009A1FFF7E5FE0020606003CC884201D04A
:10C92000012000E00020362203A1FFF7D9FE002DF0
:10C9300000D162B670BD00002E2E5C2E2E5C2E2E15
:10C940005C736F757263655C6461706C696E6B5C5F
:10C95000636972635F6275662E630000F8B5144602
:10C960000E460746FFF761FF844200D22046054687
:10C97000002404E03846FFF779FF3055641CAC42D0
:10C98000F8D32846F8BDF8B514460E460746FFF71B
:10C990003BFF844200D220460546002404E0315D7E
:10C9A0003846FFF79FFF641CAC42F8D32846F8BD19
:10C9B00010B50C48C0780121C00948402A220AA1BC
:10C9C000FFF78EFE144901246402084622461038FF
:10C9D000FFF73DFF1149224608461038FFF737FFA1
:10C9E00010BD000000B006402E2E5C2E2E5C2E2EB8
:10C9F0005C736F757263655C6869635F68616C5CCA
:10CA0000667265657363616C655C6B6C32367A5C0B
:10CA1000756172742E63000024120020341400200B
:10CA200010B500F0B5FC10BD10B500F0B1FC10BDA4
:10CA300002488079002800D001207047A41E002001
:10CA40000248C079002800D001207047A41E0020B1
:10CA50000248007A002800D001207047A41E002060
:10CA6000F8B58C212348FBF7E0FD8C272248FBF723
:10CA7000E0FD204C214E204D4034B04213D1687966
:10CA80002A79010211438C2901D20A4600E08C2246
:10CA90008C2901D90F4600E08C2717491548FBF770
:10CAA00013FD0020E0718C211348FBF7BEFD1249F5
:10CAB0003046FBF7C9FD2F71390A69710D494122D2
:10CAC000C91DE81DFBF700FD607A227A01020A48C1
:10CAD000114340300172090A4172A17A8172E17AF0
:10CAE000C1728A0003490C304C31FBF7EDFC00F0B9
:10CAF000AFF8F8BD181E0020002F0020646C766B84
:10CB000010B5094CE17A102901D3002010BD064A66
:10CB10008900403A89184C31FBF796FDE07A401CB9
:10CB2000C0B2E07210BD0000402F002010B54121BE
:10CB30000448FBF77AFD0348002139300172417245
:10CB4000C17210BD072F0020FFB581B01D461646EB
:10CB50000F461A48FBF730FC441C0198002802D00D
:10CB60003946FBF762FD0020002E00D03080002DFA
:10CB700000D028701149C91FC87900281BD0BC42B9
:10CB800001D8224602E0E01B41183A460B4C0198BE
:10CB9000C91D3934002804D0607A237A0002184372
:10CBA0003080002E02D00198FBF78EFC002D01D0C2
:10CBB000A07A2870012005B0F0BD0000072F0020EA
:10CBC0000549CA7A002A04D00A460C320260C87AA3
:10CBD0007047002070470000402F002002488079F5
:10CBE000002800D001207047002F0020F3B581B04D
:10CBF0000746FBF7E1FB124D441C41263146E81D78
:10CC0000FBF713FD412C02D83946224602E0413C95
:10CC1000E1193246E81DFBF757FC094C02984034F5
:10CC20002072000A607200F00EF9002801D0012085
:10CC300004E000F00AF9002800D00220A072FEBD36
:10CC4000002F00200149887170470000002F00204C
:10CC500070B5002211461046FCF71EFD092220493E
:10CC60002048FBF731FC204C2278104662781202F3
:10CC70001043A278E1781204104309061B4D0843C3
:10CC8000A8420FD16079217900020843092804D213
:10CC90006079217902020A4300E009221249114811
:10CCA000FBF712FC0F492846FBF7CEFC0D49092083
:10CCB000888020780146607800020143A078000453
:10CCC0000143E07800060143A94205D1607921794A
:10CCD00000020843092802D2024801F059FC70BD45
:10CCE000A2280100A41E002000FC0100646C766BE9
:10CCF00010B503498871084601F04AFC10BD0000D8
:10CD0000A41E002010B50349C871084601F040FC7C
:10CD100010BD0000A41E002010B50349087208468B
:10CD200001F036FC10BD0000A41E0020F8B5002460
:10CD3000E4430F460646002512E0705D082101F02D
:10CD40004FFF000644400A490820002C02DA640024
:10CD50004C4000E06400401E0006000EF5D16D1C42
:10CD6000BD42EADB2021204601F03AFFC043F8BD76
:10CD7000B71DC104F8B50E4617462021C04301F087
:10CD80002FFF0446002512E0705D082101F028FF06
:10CD9000000644400A490820002C02DA64004C4096
:10CDA00000E06400401E0006000EF5D16D1CBD427F
:10CDB000EADB2021204601F013FFC043F8BD00004C
:10CDC000B71DC10470B514460D460646FF2A07D8A4
:10CDD000FF22DF320AA10020FFF782FC022070BD93
:10CDE00000F0C6FC002801D00E2070BD2A46214666
:10CDF000304600F02FFE0028F7D01C2070BD000048
:10CE00002E2E5C2E2E5C2E2E5C736F757263655C0D
:10CE10006461706C696E6B5C647261672D6E2D6409
:10CE2000726F705C6961705F666C6173685F696E78
:10CE300074662E6300000000C1060007000F002981
:10CE400000DB09307047002070470120704710B5A3
:10CE500000231A4600F0D6FA002800D0012010BDA9
:10CE600010B504F005FB012800D0002010BD000023
:10CE7000F8B5164E1F2530780024AD02012806D0E3
:10CE8000FF22393212A10020FFF72AFC0AE0B07815
:10CE90000227002808D0FF223F320DA10020FFF713
:10CEA0001FFC37700220F8BD204600F02DF8002846
:10CEB00002D037701E20F8BD012080022418AC4239
:10CEC000F2D30120B0700020F8BD0000D8F0FF1FA1
:10CED0002E2E5C2E2E5C2E2E5C736F757263655C3D
:10CEE0006461706C696E6B5C647261672D6E2D6439
:10CEF000726F705C6961705F666C6173685F696EA8
:10CF000074662E6300000000F8B5254E05463078A3
:10CF1000012806D0FF22013222A10020FFF7E0FB0A
:10CF20001AE00127BF0239462846FBF795FB022489
:10CF3000002902D0FF22093209E0F07800280DD044
:10CF4000F168B0684018A84208D0FF22103215A13D
:10CF50000020FFF7C5FB34700220F8BD01227F20BE
:10CF6000D20380020121954203D3854201D20020E1
:10CF700000E00846002810D0F170F7602846B56040
:10CF800000F0B4FF222803D00028E6D03470F8BDAA
:10CF9000284600F0EDFB0028F9D034701D20F8BDC4
:10CFA000D8F0FF1F2E2E5C2E2E5C2E2E5C736F751C
:10CFB0007263655C6461706C696E6B5C64726167FE
:10CFC0002D6E2D64726F705C6961705F666C617349
:10CFD000685F696E74662E630000000001208002A5
:10CFE0007047000010B5242804D206498000085874
:10CFF000002805D1E12204A10020FFF771FB0AA05F
:10D0000010BD0000982001002E2E5C2E2E5C2E2ECE
:10D010005C736F757263655C6461706C696E6B5C88
:10D020006572726F722E63000000000001460120DD
:10D03000242901D20148405C704700001CF0FF1F0A
:10D04000F3B581B00446009000E0641C20784028CD
:10D0500002D00028F9D15EE06078622848D012DC66
:10D06000522854D008DC422842D0442849D04828CD
:10D0700041D04D2817D134E054283FD0552833D023
:10D08000562810D140E0722841D006DC642838D000
:10D09000682830D06D2806D123E074282ED075285A
:10D0A00022D0762830D01DA52046FBF785F907460B
:10D0B0002846FBF781F90646A019029B009AC11980
:10D0C000D218891E914225D2BA1EA11CFBF760FA24
:10D0D000324629462046FBF7F7F920780028B5D1DB
:10D0E00019E000F0CFFD01E000F0D4FD0546DBE7DC
:10D0F00000F07AFDFAE700F0A5FDF7E700F0C6FDC5
:10D10000F4E700F09BFDF1E700F0CCFDEEE7054809
:10D110000568C9E7E4190098201AFEBD4552524F30
:10D12000520000007C20010070470000F8B51E4648
:10D1300015460C46074604F015FD204800780328E4
:10D140000CD01E482038022C09D0002C19D0012CFC
:10D1500004D10068A84201D103F052FAF8BD00687A
:10D16000A842FBD1304604F04BFA0446304604F0A6
:10D170004DFA0646384602F0F7FB03462246314692
:10D1800017E0384602F0F0FB0328E7D0304604F001
:10D1900035FA8007E2D4384602F0E6FB074630460F
:10D1A00004F02EFA0446304604F030FA01463B46BD
:10D1B0002246284603F0FAFAF8BD00003C0600209B
:10D1C000F7B51C4E0446B0785502174600280BD11F
:10D1D0002946019802F084FB032802D0214603F07F
:10D1E00091FAB078002812D0124920394868A0423C
:10D1F0000DD8C868A0420BD0A04208D90869401CCD
:10D2000000D10C610869A04200D204460C61FEBD49
:10D21000C8692A468018C861E019C860F0780028FB
:10D2200003D0002003F010FBFEBD2046019903F05F
:10D2300013FAFEBD3C060020F0B585B018A10968C0
:10D2400004910378002104AA545C9C4226D0491C16
:10D250000329F9D313A10A688E6896464A68CD68F7
:10D2600000239446C25C714664466F46039552C7DC
:10D2700011466139192911D9202A01D2052A0DD167
:10D2800000216C46675C974208D0491C1029F9D3ED
:10D290005B1C0B2BE6D3012005B0F0BD0020FBE7A3
:10D2A000E5002000222A2B2C2E2F3A3B3C3D3E3F0E
:10D2B0005B5C5D7C70B50446204600F01AF80546BC
:10D2C000002D00D070BD044902480968884700BF9E
:10D2D000F8E700000C3000F02CF1FF1F016801227C
:10D2E000920211430160BFF36F8FBFF34F8F7047FE
:10D2F0007047002807D0C069002802D000680228C3
:10D3000003D06D207047042070470020704710B58F
:10D31000002806D05B1E194201D11A4203D06520B5
:10D3200010BD042010BD03688B4204D840688918E2
:10D330001818884201D2662010BD002010BD0000E0
:10D340000349884201D06B207047002070470000DD
:10D350006B66656B10B50C4C70212170FFF7C9FF2F
:10D36000002807D1094920460968884720788106A6
:10D3700001D5672010BDC10601D5682010BDC007CA
:10D38000FCD0692010BD00000000024028F1FF1F02
:10D3900070B50E4D00202C78002C0FD00021297084
:10D3A000A978002901D000F003FB022C05D0697890
:10D3B000032902D0002800D1212070BDFF22343281
:10D3C00003A10020FFF78CF9022070BDACF0FF1F15
:10D3D0002E2E5C2E2E5C2E2E5C736F757263655C38
:10D3E0006461706C696E6B5C647261672D6E2D6434
:10D3F000726F705C666C6173685F6465636F6465AF
:10D40000722E63003EB51D460446302901D301202B
:10D4100000E00020402212A1FFF762F921460C2211
:10D4200020316846FBF750F81A49019888420BD121
:10D4300019490098884201D102203EBD1649FC39A5
:10D4400088420AD101203EBD204603F0BDFF0028DE
:10D4500001D1002D01D003203EBD00203EBD0000C3
:10D460002E2E5C2E2E5C2E2E5C736F757263655CA7
:10D470006461706C696E6B5C647261672D6E2D64A3
:10D48000726F705C666C6173685F6465636F64651E
:10D49000722E6300019996978F9E939BFFB581B082
:10D4A0000746002404982546002813D00A9800282F
:10D4B00010D00499002008600A9906460860FFF71A
:10D4C000C2FC002812D00120C003022F04D0032F79
:10D4D0000AD013E0652237E00399002904D00299AD
:10D4E000814201D018240AE0064615E0FFF7ADFCA2
:10D4F000002803D0012F07D0032F0FD01924FFF7E6
:10D500009FFA00280FD010E00398002804D002985A
:10D51000002801D01724F2E70E4802E00E48866882
:10D520000E480568EBE7012F04D0002C04D02046FC
:10D5300005B0F0BD1924FAE7002D04D00498066068
:10D540000A980560F3E79D2205A10020FFF7C8F8BF
:10D550000220EDE7A4210100BCF1FF1F6C210100B6
:10D560002E2E5C2E2E5C2E2E5C736F757263655CA6
:10D570006461706C696E6B5C647261672D6E2D64A2
:10D58000726F705C666C6173685F6465636F64651D
:10D59000722E630010B50D4C2078002806D0AC2206
:10D5A0000BA10020FFF79CF8022010BDFF223021C4
:10D5B0001448FBF715F801202070002060706060AF
:10D5C000A060E060A070E07010BD0000ACF0FF1F34
:10D5D0002E2E5C2E2E5C2E2E5C736F757263655C36
:10D5E0006461706C696E6B5C647261672D6E2D6432
:10D5F000726F705C666C6173685F6465636F6465AD
:10D60000722E6300A0FBFF1FF7B5494F054638781F
:10D6100084B01446012807D0C12246A10020FFF79C
:10D620005FF8022007B0F0BDF878002803D1BD6094
:10D630000120FD60F870B878002856D1F9688D4255
:10D6400001D1012000E000200919F96000282FD045
:10D65000786830210E1AA64200D916464249324651
:10D6600008180599FAF730FF7868A41B80197860CC
:10D670000599AD1989190591302829D316D00020B4
:10D68000E3222CA1FFF72CF801233748BA68796808
:10D69000FFF7B8FE787001A8009002AB01227878FD
:10D6A000B968FFF7FBFE002826D103E00120E7E779
:10D6B0000320EFE7B87801267040FC221DA1FFF798
:10D6C0000FF8019800F00CF9002815D1BE7002E0A7
:10D6D000B878002813D024497A68B86800F070F848
:10D6E000002809D1B878002809D022462846059993
:10D6F00000F066F8002802D00321397092E77878AC
:10D70000012804D0022805D003280FD105E01F20EE
:10D71000800204E07F20800201E01448C0682919DB
:10D72000814203D30220387010207BE7002079E784
:10D73000ACF0FF1F2E2E5C2E2E5C2E2E5C736F75B0
:10D740007263655C6461706C696E6B5C6472616766
:10D750002D6E2D64726F705C666C6173685F6465BA
:10D76000636F6465722E6300A0FBFF1FBCF1FF1F97
:10D7700010B5EFF31081CC07E40F72B6FBF7A4FDF0
:10D78000002C00D162B610BD70B50E4605001446DF
:10D7900013D020211046FAF74AFF2660E86860603F
:10D7A000A9686868FAF758FFA0600420E06020616B
:10D7B0006061A061E061002070BD042070BD0000C8
:10D7C000F7B5384F0446787800251646012805D06D
:10D7D0007B2235A10020FEF783FF09E078698442AF
:10D7E00008D2832230A10020FEF77AFF0220787051
:10D7F0000220FEBDF878002809D1204601F068FF1C
:10D80000050002D0022078704AE00120F870254F10
:10D81000BA6878688118A14219D8B97800290BD163
:10D82000B9698B682D499847050003D01D4902202E
:10D83000487035E00120B870FF222848B968FAF72F
:10D84000CFFE2046B968FAF707FF601A7860002E0D
:10D8500024D03969F8684018A04204D8204601F065
:10D8600037FF0500E2D10F4948688968201A0F1A6E
:10D87000BE4200D2374619493A4608180199FAF7CC
:10D8800023FE002F08D000200649E4198870019873
:10D89000C019F61B0190BAE70120F5E70148446181
:10D8A0002846FEBDBCF0FF1F2E2E5C2E2E5C2E2EB9
:10D8B0005C736F757263655C6461706C696E6B5CE0
:10D8C000647261672D6E2D64726F705C666C61733B
:10D8D000685F6D616E616765722E6300D0FBFF1F2C
:10D8E00070B5244D04466878002801D047222FE007
:10D8F000002C2CD06068002829D0A068002826D0F1
:10D90000E068002823D02069002820D06069002822
:10D910001DD0A06900281AD0E069002817D0012185
:10D92000FF2289021448FAF75BFE0126AE70002040
:10D93000E8706860A860E8602861AC616861206890
:10D940008047040009D12878002807D010E04D2234
:10D950000AA10020FEF7C4FE022070BDA86900697C
:10D960008047040004D0A86940688047204670BD05
:10D970006E70FBE7BCF0FF1FD0FBFF1F2E2E5C2E4E
:10D980002E5C2E2E5C736F757263655C6461706CC7
:10D99000696E6B5C647261672D6E2D64726F705C72
:10D9A000666C6173685F6D616E616765722E63009E
:10D9B00070B5194C00256078002802D0012807D0E6
:10D9C00010E0CE2215A10020FEF78AFE022070BDD5
:10D9D000A078002806D1A0691D498368A268606804
:10D9E00098470546A0694068804706460121FF2206
:10D9F00089021748FAF7F4FD01200021A070E170B8
:10DA00006160A160E160216161616170002E01D0FF
:10DA1000304670BD284670BDBCF0FF1F2E2E5C2E18
:10DA20002E5C2E2E5C736F757263655C6461706C26
:10DA3000696E6B5C647261672D6E2D64726F705CD1
:10DA4000666C6173685F6D616E616765722E6300FD
:10DA5000D0FBFF1F10B5EFF31083DC07E40F72B6A5
:10DA6000FBF752FE002C00D162B610BD8021017080
:10DA700001780906FCD57047704700000346012273
:10DA800001490020184700005006002002480069A4
:10DA90008007C017401C704740F00F4000207047BF
:10DAA00008B51A48816B1F2252021143816318493D
:10DAB0008015086108610861164A5060886000207E
:10DAC00000F03AF8002000F02DF8002000F03EF8B9
:10DAD00011480168042319430160426910210A4377
