:1080000098120020617601006B7601006D76010008
:108010006F760100717601007376010000000000A8
:108020000000000000000000000000007576010064
:108030000000000000000000957A0100E1930000BC
:108040007B7601007D7601007F760100817601005C
:10805000837601008576010087760100897601002C
:108060008B7601008D7601008F76010091760100FC
:108070009376010055A600009776010099760100DD
:108080009B7601009D7601009F760100A17601009C
:10809000A3760100A5760100A7760100A97601006C
:1080A000A9820000AD760100AF760100B176010033
:1080B000B3760100B5760100B7760100B97601000C
:10820000000000000000000000000000000000006E
:108210004A2D4C696E6B204F422D43616C6C696F27
:1082200070652D6D696E6920636F6D70696C656432
:108230002041756720323220323032332031353AD6
:1082400030363A313700436F70797269676874204D
:10825000323031372D323031372053454747455280
:108260003A207777772E7365676765722E636F6D37
:1082700000000000000000000000000000000000FE
:1082800080B500F047F804480CF076FD0348044937
:10829000044A0CF02BFF80BDBC750100D99501008C
:0882A000C5510100AD510100C0
:1082A80010B572B60D4C2078401C20706078401CC8
:1082B80060700B480068002800D080476078401E36
:1082C800607060682178012903D1002801D00FF07F
:1082D80047FC2078401E207062B610BD200E00209A
:0482E800940C0020D2
:1082EC0006490A68C02313433F2293430B60044999
:1082FC0008600120000603490860704718E400E09C
:08830C00940C002000E100E0E8
:108314000120800403490A6802430A600A6B02438D
:088324000A6370470480044065
:10832C00F0B58BB0049203910646EFF310800290E7
:10833C00012181F3108881204002224A11680191A9
:10834C000840112189024118116005214903401888
:10835C001060002B0FD0B0050DD10498401E801278
:10836C00441C08D2184D3746384600F031F8E8194D
:10837C00471C641EF8D1049C601007900696039D60
:10838C00059505A800F02CF80E480199016002989B
:10839C0080F3108830462946224611F08BF80028CD
:1083AC000DD00A4C002010F03FFB204600F020F8C6
:1083BC00002010F03EFB204600F01AF8F2E70BB05C
:1083CC00F0BDC0460C3000F0FF03000020A10700F8
:1083DC0008B4024B9C4608BC6047C046610E0020A6
:1083EC0008B4024B9C4608BC6047C0469D0E00205A
:1083FC0008B4024B9C4608BC6047C0464D10002098
:10840C0070B5EFF31084012181F3108881214902AA
:10841C00084D2E683140112292028A182A600522DA
:10842C0052038918296000F007F82E6084F3108835
:10843C0070BDC0460C3000F008B4024B9C4608BC22
:08844C006047C046610E0020EC
:1084540070B53B20C40201208502044E2046FFF77C
:10846400D3FF76196419002EF8D170BD00E0FFFF28
:10847400F0B5C9B007208002664908601020C543E2
:1084840065490D60654E336C6024A34333643368DF
:108494000224A343336001273A0213465433604C49
:1084A400236063605F4C23605F4C236030670B681C
:1084B40003430B6009AC002120460391049211F0A0
:1084C400EBFB667BFF2E0AD109A847738E21415C22
:1084D40005910A0703D58E30F722114001700197E8
:1084E40009AF3846203010F0FCFC029038462430A6
:1084F40010F0F7FC044605903037384610F0F1FCD4
:10850400FF2E30D0401C2ED1601C2CD10298401C70
:1085140029D13F20C70209AC20463946049A0EF0FF
:108524001FFC204610F0DDFC411C424E06D03146B3
:1085340010F0F7FC5838411E8841039009A8001D2B
:1085440010F0CFFC401C01D0019803902C460D3450
:1085540009A80019143010F0C4FC401C13D1241DC8
:108564000B2CF5D911E010F043FA09A80021049A64
:1085740005F0D2FC012181F3108800F0ADFF2B48F7
:108584002B490160FEE7012003900D3509A840192D
:10859400243010F0A6FC401C05D12D1D7B2DF5D9EF
:1085A4000398002802D03846FFF72EFF012002026C
:1085B40009A839460EF0D4FB0998401C06D000F0F7
:1085C4007FFE05200EF0E2FA49B0F0BD1149886A39
:1085D4000690486A0790086A089006A80C210022B1
:1085E40005F01CFC059005AA314611F0A1FD1248C6
:1085F400059908180590099009A8049910F0FDF947
:10860400012181F3108800F067FF084808490160E0
:10861400FEE7C04638800440D4F00F4054F00F40C9
:1086240014B0044010C0044004A004400CED00E069
:0C8634000400FA058096980000BC733426
:10864000012181F3108800F049FF024802490160CE
:0C865000FEE7C0460CED00E00400FA0557
:08865C0000487047E40C000027
:10866400024800684006C00F7047C04690F00F40B3
:10867400024800688006C00F7047C04690F00F4063
:108684000548016860229143016055208000034938
:10869400086048607047C04694F00F4014B004402E
:1086A400054840210160C2680A43C2605520800029
:1086B400024908607047C04688F00F4018B0044073
:1086C40005484021016002690A4302615520800087
:1086D400024908607047C04684F00F4018B0044057
:1086E400054820210160C2680A43C2605520800009
:1086F400024908607047C04688F00F4014B0044037
:1087040005482021016002690A4302615520800066
:10871400024908607047C04684F00F4014B004401A
:1087240010B508482021416002690A4302615522BC
:108734009200054B1A60016004690C4304611A60DD
:0C87440010BDC04684F00F4014B004408B
:0C875000014800687047C046C80C0020BB
:10875C0010B50C460146054A00201060012902D1D3
:10876C00204600F003FE02490C6010BD680D00208D
:04877C00C80C002005
:1087800080B506490978012902D100F0EDFD80BDD0
:10879000302181800249016080BDC046160E002054
:0487A000006CDC028B
:0887A400004870471027000097
:1087AC000C2803D880000349085870470020C043A8
:0887BC007047C046AC6D0100DE
:0C87C4000148012101707047030E0020E5
:0C87D0000148002101707047030E0020DA
:1087DC0080B510480078012805D11048017800298F
:1087EC0005D0491E0DE00C48102181600AE00A49B1
:1087FC000A68D20602D410224A6001E010228A6074
:10880C00FA21017006480078012801D100F078F8AF
:10881C0080BDC046030E0020C0F00F401E0E00208D
:04882C00090E002011
:0888300000487047FF2F0020F3
:10883800F0B581B0294D2868002809D02849096A6F
:10884800081A28490C78052806DB0020286003E070
:10885800254800688007C40F002C10D021480078F4
:10886800012805D02148002101601D48006A2860C0
:108878001C4804701E480078012827D029E01C4EA7
:108888003078002801D110F0B5FE164F387800284E
:108898000AD01348016A29603178002914D1397047
:1088A800006A1249086014E0307800280CD10F489B
:1088B80000680B49096A081A7D2149018842D7DBFB
:1088C80000F092F80120307000203870204600F047
:1088D8001FFB01F035FB002001B0F0BD880C002023
:1088E800200E0020770D002050F00F408C0C002047
:0488F800090E002045
:1088FC00002801D00020704700487047A86E010086
:10890C00F0B581B030480078002858D12D48007857
:10891C00002854D12D490878002801D0401E4DE084
:10892C002B4C211D0520009107F028F9072041034D
:10893C0007F024F90520214607F020F9254F0720E0
:10894C00394607F01BF9244801782448405C0A2278
:10895C004A43234989180026354632460346D340FC
:10896C00DB0708D04B7810249C4025430B783C4601
:10897C0010349C402643891C521C052AEED105203C
:10898C00134907F0FBF80720314607F0F7F80520EC
:10899C00009907F0F3F80720294607F0EFF80024B8
:1089AC000520214607F05EF90B4A1078401CC1B235
:1089BC00042900D80446147004200449087001B03E
:1089CC00F0BDC046FE0D0020040E00201D0E002040
:1089DC0008050050F01F00001C0E0020EF7C010069
:0489EC006FA5010072
:1089F000F0B59BB0F54800240470F5480470F548C4
:108A000001250570F4480570F4480470F4492846BF
:108A100006F0F8FF07F02EFB002800D0D4E1059502
:108A20000A9402200490002107F0AEF80420ED49DA
:108A3000039007F0A9F80524EB49204609940D4658
:108A400007F0A2F8E949072007F09EF829460C3103
:108A5000052007F099F8E649072007F095F8294620
:108A6000E439052007F090F8E249072007F08CF878
:108A70000AAC0720214607F0FBF8DF4D2F6A099862
:108A8000D94907F081F80720214607F0F1F80720BF
:108A90000AAC214607F0ECF8E078800703D4286A96
:108AA000C01B6528F3DBD54C0520214607F06CF888
:108AB0000021072007F068F8059FB907052007F097
:108AC00063F80720394607F05FF805202546214660
:108AD00007F05AF810A9072007F0CAF8072710A9CD
:108AE000384607F0C5F810980028F7D00520294629
:108AF00007F04AF800210891384607F045F8C04DC4
:108B0000291D0520069107F03FF87E030720314616
:108B100007F03AF80520294607F036F8B94907204A
:108B200007F032F810350520294607F02DF8072008
:108B30000996314607F028F80520294607F024F861
:108B40000720B04907F020F810A9052007F090F899
:108B5000AB491431052007F017F803200104072062
:108B600007F012F8A84D291D052007F00DF8072081
:108B7000089E314607F008F80520294607F004F85A
:108B80000720314607F000F80520314607F070F85D
:108B90000598069C08900520994906F0F5FF0720E6
:108BA000099906F0F1FF0520214606F0EDFF0720A8
:108BB000944906F0E9FF00270520394607F058F8E8
:108BC000924800F02BF90520214606F0DDFF072032
:108BD000099906F0D9FF0520894906F0D5FF07203D
:108BE000884906F0D1FF05200797002107F040F8DB
:108BF0000898C00704D0854800F010F90020C9E7A4
:108C00007D208000824909F02DFB82490860002800
:108C100000D1D2E00F20C50210A8083002904020F9
:108C2000059E0990202110AC2846224600F0B0FA9B
:108C30002078002800D1B3E0E52800D1B0E0089505
:108C400017994842484110A9CA7A0825D3063346E5
:108C500002D413462B40DB083F2414400F2C34462B
:108C600000D01C46002C334603D11346049C2340FD
:108C70005B08002B334602D1039B1A409308002B5C
:108C8000324600D10246498B48424841002A3146CB
:108C900000D10146002900D081E00BA90020C87056
:108CA00010AA137A202B044600D01C460C70537A6D
:108CB000202B044600D01C464C70927A202A034692
:108CC00000D013468B7034468000534909580BA8D6
:108CD00010F014F9002805D001200021E2070C460D
:108CE000F2D15CE00798182856D84A4800680690E8
:108CF000002410A8005D202805D018A90855641C80
:108D0000082CF6D12C4618A80619032230460299E1
:108D10000EF028F80025F570221D0798002815D0C0
:108D200001920024069807193E46083618A83146D5
:108D300011F05AFA00280BD414346D1C0798A8427D
:108D4000F0D106980719059E019A1BE0069F15E0D1
:108D5000142007994843021B3846143039460EF058
:108D600013F818A93046019E32460DF0FBFF32463B
:108D700010A8408B0699085117987860059E0798AF
:108D8000854209D13846083018A90DF0EBFF10A82C
:108D9000408B3860179878600798401C0790089DB2
:108DA0000998401E2035002800D03AE70798192876
:108DB00001D319200790002803D100F0DDF900202D
:108DC00007900248079901701BB0F0BDFE0D00200E
:108DD0000A0E00200D0E00200C0E0020790D002040
:108DE00000093D0002000023F0ED00E003005FA059
:108DF000010000010400FA05200E002000010040DF
:108E000008050050F01F00004007005020A1070097
:108E1000E5A801009C0C0020E06D010008B4024BA5
:0C8E20009C4608BC6047C0464D10002076
:108E2C00F0B583B001262749304606F0E5FD07F082
:108E3C001BF9002844D134460196002702970220E2
:108E4C00394606F09BFE0420204906F097FE0520CB
:108E5C001F4906F093FE0720314606F08FFE0720CF
:108E6C00394606F0FFFE029702A9072006F0FAFE2B
:108E7C00E00725D00298304022D11349F03105206B
:108E8C0006F07CFE0720012106F078FE0520019EED
:108E9C000D4906F073FE07200E4906F06FFE06F032
:108EAC0037FE06F035FE06F033FE06F031FE0120EB
:108EBC00044906F0A1FD07F0D7F800283C46BCD0C9
:108ECC0003B0F0BD00093D000CED00E002000023F2
:088EDC00440500400400FA0502
:108EE40080B50120064906F08BFDFFF7F9FBFFF77B
:108EF400D7FB4B20800000F005F8FFF7E1FB80BDB5
:108F040000093D0008B4024B9C4608BC6047C046BB
:048F14004D100020DC
:108F1800F0B58FB00400844E307805D1002803D016
:108F28008248012101700DE0002C0BD0002809D1E6
:108F38007E480078002805D0FFF774FFFFF7CEFFC2
:108F4800FFF77AFB7A4D2878002800D1E8E00294F0
:108F580078490831052006F013FE07270AAC384681
:108F6800214606F081FE3846214606F07DFE0A9825
:108F7800C103CC0F8003C60F6F48007886420BD020
:108F880005200DF001FE002E06D06C48017800295E
:108F980000D12978491E0170039704966848007823
:108FA80084420ED005200DF0EFFD002C09D0287862
:108FB800421E624801788A4201D0491C00E0002123
:108FC80001705E480594007808905A4F391D099140
:108FD8000524204606F0D4FD039D6903284606F0C3
:108FE800CFFD20460794394606F0CAFD554E28465F
:108FF800314606F0C5FD0520394606F0C1FD089842
:10900800400051490A5C0A235343504AD218089237
:10901800081840784400105D1036864028463146CE
:1090280006F0AEFD079F3846099906F0A9FD089895
:109038000019059C407810218140284606F0A0FDC3
:1090480000263846314606F00FFE049908462043AC
:1090580060D13A480078142141433D48006845589A
:109068000B954018476800F083F8012460023949DD
:10907800099009F0F3F80790002843D036480470A7
:109088003648374901600D960C96E8030690354C32
:109098000897069800190999079F3A4600F074F84E
:1090A8000D960C960998009000250CA928463A467A
:1090B800089F334608F0FCFA0999481C874218D3E0
:1090C800641829483F18761C002CE1D10C200B9C11
:1090D8004443E00803990903401802210BAA00F051
:1090E80053F8042020400B9DC540204805400B95AF
:1090F800CBE708F0A3FD08F0C9FD174805700798ED
:1091080009F0C0F8FFF78EFEFFF7E8FEFFF794FAC4
:10911800059C04990A48047007480170029C024E95
:1091280034700FB0F0BDC046790D00200F0E00203E
:10913800FE0D0020080500500D0E00200A0E00202C
:109148000C0E0020F01F0000A1A501006FA5010072
:109158009C0C0020F1A80100040E0020380D00200E
:109168001C6E01000080FFFF00FEFFFFFF0F0000E4
:1091780010B5044C2068002803D009F083F80020BB
:08918800206010BD9C0C0020CA
:10919000F0B581B015460C460A4F04267E6069463C
:1091A000C870020A8A70000C4870032008700846D4
:1091B00031460EF0FDFA284621460EF00DFB3E60CA
:0891C00001B0F0BD84F00F4086
:1091C800F0B585B002920C460646FFF7F7FA002C78
:1091D8002FD01A4D04276F600620049004A801219F
:1091E80000910EF0E1FA2F6000F02AF86F6003A8F2
:1091F800C670310A8170310C4170022101700197EB
:1092080004210EF0D1FAFF2C254601D90098050259
:10921800029F384629460EF0C7FA019807490860A8
:109228007F1902977619641B00F00AF8002C034D89
:10923800D0D1FFF7C9FA05B0F0BDC04684F00F40A1
:1092480070B582B0094D04266E600520019001A812
:1092580001210EF0A9FA01AC012120460EF0B8FA5E
:109268002078C007F7D12E6002B070BD84F00F409F
:10927800F0B583B00C460646FFF7A0FA0E4F04255A
:109288007D600620029002A801210EF08DFA3D6053
:10929800FFF7D6FF7D6001A8C670310A8170310CD6
:1092A8004170047029460EF07FFA3D60FFF7C8FF51
:0C92B800FFF78AFA03B0F0BD84F00F400D
:1092C4000720800220490A6802430A601F4A136883
:1092D4001F480340052189015B1813601D4A136868
:1092E40003405B181360536803405B185360936931
:1092F40003405B189361184A136803405B181360BA
:1093040053680340581850601448012101600269F1
:109314000A43026104210164026D0A4302650221C9
:109324000164026D0A4302650D4920220A600B693B
:1093340013430B6140220A600B6913430B61016DF7
:1093440080229143016570473880044000A00440A6
:10935400BFF8FFFF04B0044014C0044044F00F40C1
:04936400C4F00F4002
:1093680018218180014901607047C046006CDC0209
:1093780010B506244443084821460DF08FFC0749E0
:109388008C4201D8001F01E00020C0430449086056
:1093980000F00AF8034810BD006CDC02001BB7009F
:0893A800680D0020E86D0100D2
:1093B00010B5094801684022914301605521890098
:1093C000064A516003460C3B20241C60036823437B
:1093D00003601160002010BD94F00F4014B00440F1
:1093E00010B50C4C2078401C2070FFF7F7F901F005
:1093F000B9FE0DF04BFB72B660682178012903D1EC
:10940000002801D00EF0B0FB2078401E207062B61C
:0894100010BDC046200E002033
:10941800F0B585B01D486C4621460CC80CC12CC857
:109428002CC172B61A4D6878401C687000F0A8F814
:109438007D20C100174E30680DF030FC401E164AE2
:1094480050601648036816490B400327BF07DB190D
:10945800036000239360072313600246183A114BF8
:10946800136002680A400121C90751180160306879
:10947800009020460DF092FB6878401E687068786E
:10948800002800D162B605B0F0BDC046086E0100E4
:10949800200E00206810002010E000E020ED00E021
:0894A800FFFFFF00008000003F
:0C94B000014800687047C04618E000E06A
:1094BC0001208106014800680840704704ED00E077
:1094CC000120C003014908600020704708ED00E04E
:0C94DC00014900200860704708ED00E026
:1094E80070B520480023036001214A021E48446BDE
:1094F800144344631D4A02641D4A14681D4D2C40E0
:10950800146054682C4054601B4A55784024254008
:1095180024355570194D80262E709A251570D578EA
:109528001F262E40D6700325157153719379DB06DB
:10953800FCD495790C231D40082DFAD154719479E7
:109548001C40082CFBD194796406FCD51A241470AD
:1095580094791C400C2CFBD1090402680A43026070
:1095680070BDC04600810440048004400000011022
:1095780048900440FFF8FFFE0040064000500640B7
:10958800B0B5324C20783F280CD86079400614D406
:109598002078400723D4207861788906890F27D05E
:1095A8002D4926E02178C0200140402911D160785A
:1095B800C00717D10120C0033FE020791F252840AC
:1095C800411C23480DF06AFB014660792840183099
:1095D80032E021780140802937D11D482DE0012053
:1095E800C10309E0207A0007410F1A48C84024E067
:1095F80017498006400FC140E07840097844007957
:10960800400087440305080B0E121618052003E0D6
:109618000520000210E00F20C0010DE005204002E7
:109628000AE00520C0015C3006E005200002B830E1
:1096380002E00B4800E0094848430A490968090F55
:10964800491C0DF02BFB08490860B0BD00400640DE
:109658000024F40000093D0020A10700710B000060
:0C966800950800004480044068100020B9
:10967400F0B59BB005920E46074600F037FA002875
:1096840000D5D5E06E48816A07A800F089FB040084
:1096940000D5D2E0002E00D1CFE0694C65686A4263
:1096A4003A40BA420292039659D166488742294603
:1096B40006D9664838180DF0F3FAA168081802E0D4
:1096C40038460DF0EDFA0726014631400690C210E7
:1096D40023689A5CCA40D1073FD01A965A48199019
:1096E4000022169215921497012513951292119245
:1096F400A069E1691091E1684018A36AE16A002B4E
:1097040000D04018646A04190F94002B039E00D003
:1097140049424B4C236AC018091818910146283154
:10972400179130210FAB10F017FC302800D081E0E6
:10973400A16A08466840A0620BA800F031FB2146EC
:10974400044601220D46086806990FF0FCFB002C24
:1097540073D42C466D68029A01E0029A039EE06875
:10976400A1690918A06A0028049701D0E06A0918C1
:10977400606A01910918D01B4019B04200DB3046E1
:109784000690266A2746002408460D460699224676
:10979400059B10F0E1FB069988424DD10F95169474
:1097A400159414941391049803461290119406206E
:1097B4001A9025481990F86910900198801901466B
:1097C40028311791BA6AF96A002A00D04942039EE7
:1097D4001F460918189130210FAB002210F0BCFB72
:1097E400302827D1164CA06A01214140A1621548B6
:1097F400029A8242616806D9144810180DF050FA92
:10980400A168091803E010460DF04AFA01462068E1
:10981400012210F0C1FCA16A07A800F0C1FA0400FB
:109824000BD40699761A059840180590CF1931E79C
:10983400044602E0064C00E0E44320461BB0F0BDC1
:10984400700B0020FF0F0010FEFFFF7F00F0FFEF02
:04985400FAFEFFFF1A
:10985800F0B581B014460D46064600F045F90746B6
:10986800002D32D0002F30D42346194C6068811B5C
:10987800444234400F19AF4200DB2F4600223046E5
:109888003946009310F05AFBB8421DD11248844261
:1098980008D3124820180E4C61680DF0FFF9A16832
:1098A800091806E00A4A5168204614460DF0F6F9F0
:1098B80001462068012210F06DFCED1B009BDB19AE
:1098C800BE19002DD2D100E0024F384601B0F0BDDC
:1098D800700B0020F9FEFFFF0010001000F0FFEFF2
:1098E800F0B591B000F000F900283CD400F056F82B
:1098F800274A9069D1690691D1684618956AD76A4E
:10990800002D00D0F619106A0090506A30180590A2
:1099180005AC2046083018210DF028FA07201090D1
:109928001C480F90002D00D07F420098301839183D
:109938000E91014628310D9130210022234610F066
:1099480009FB3028124D18D1A96A01204840A862A5
:1099580001A800F023FA04462868A9684A1C0021D7
:109968000FF0EFFA0AE00A49086889684A1C0024DF
:1099780021460FF0E6FAE44306E0074C2868A96898
:109988004A1C00210FF0DDFA204611B0F0BDC04698
:0C999800700B0020FEFFFF7FFAFEFFFFB7
:1099A40030B585B000F0A2F800280BD4064DA96AA2
:1099B40001AC204600F0F4F9A86A01214140204698
:0C99C40000F0EEF905B030BD700B002083
:1099D00010B50D4C2068002808D0012181F31088B3
:1099E000206808F053FC002181F310883020205CAF
:1099F000002802D0002005F029FEFEF7E9FE02480B
:0C9A000034210DF0B7F910BD700B0020F0
:109A0C0080B506F031FB002811D10220002106F0B0
:109A1C00B5F804200C4906F0B1F805200B4906F006
:109A2C00ADF80720012106F0A9F806F071F80FF047
:109A3C0008F90FF014F94B20800000F009F80FF032
:109A4C0038F9002080BDC0460200002344050040C8
:109A5C0008B4024B9C4608BC6047C0464D10002021
:109A6C0010B5081D0FF039FA0146C007054808D09B
:109A7C00054BCC1808339C4200D30020491C00D164
:0C9A8C00002010BDF6FEFFFF0000F0FF00
:109A980010B502280ED800280CD059180001084C1F
:109AA8002018C468A14205D8816810461A460DF0EE
:109AB80055F910BD104619460DF058F910BDC046AD
:049AC8003C6E0100EF
:109ACC0030B5022905D80901054A51183CC93CC0DA
:109ADC0030BD0021016041608160C16030BDC04675
:049AEC003C6E0100CB
:109AF000F0B597B030219D48405C002801D000258A
:109B000030E10691FEF75EFE01279949384605F0DF
:109B100079FF9848077010F05BFA06F0ABFA04463C
:109B200008AE301D38210DF025F9377192480890A4
:109B30000020314605F0AEFD002005F011FD016961
:109B4000C069036C0846002100229847611E8C41C1
:109B50000028384600D40020204388498D1C002866
:109B600000D0FFE005970FF053F88548079085482F
:109B700007AF042100223B4610F0F0F9824807901D
:109B800080480C300390042100223B4610F0E6F997
:109B90007E4807907B4E3046E43802900421002234
:109BA0003B4610F0DBF90120049047067848046A30
:109BB0000A340421002207AB304610F0C3F907989D
:109BC000384203D17248006A8442F2DA304607AB69
:109BD0000421002210F0B6F96448031D6D480421E9
:109BE000002210F0AFF96B48001D604C234608338B
:109BF0000421002210F0A6F9A068414241416268A8
:109C0000521C022A059E324600D30A46431C594282
:109C10005941002A00D10E46002E00D0A2E0216852
:109C2000002914D10830C0100790012181F3108859
:109C3000079808F0D7FA2060002181F31088206887
:109C4000002844D0A1684A1C00210FF07EF900F0E2
:109C5000DDF8002800D584E0E0687D21CE003446A0
:109C6000B03400224C4B214610F078F900F0E8F8AF
:109C7000002876D400F026F9002872D4009402203F
:109C80000790464C04210022059207AB0193204621
:109C900010F064F904980790083420460421059ACE
:109CA000019B10F05BF93A48006A851901260022F1
:109CB00007AC3B483146234610F044F92078C007F2
:109CC00008D13348006A8542F0DA2C4D4AE02B482F
:109CD000451C47E02A4807900421059107AC294814
:109CE0000022234610F03AF9274807900398059977
:109CF0000022234610F032F9244807900298059973
:109D00000022234610F02AF92148046A0A3404216B
:109D1000002207AB1B4810F015F90798384203D111
:109D20001B48006A8442F2DA0421002207AB15487E
:109D300010F008F900F06AF8002812D40B48C06847
:109D40000022154B009910F009F900F079F800286D
:109D500007D400F0B7F8002803D4069803490E543E
:109D6000CDE60546284617B0F0BDC046700B002072
:109D700000093D00160E0020FF000006FEFEFFFF5A
:109D800003005FA0F0ED00E0010000010400FA050F
:109D9000200E00201000001001A9010004E5014080
:049DA00000E401409A
:109DA400F0B581B0044614488269C3689A18036AFE
:109DB400D5182835002901D0C06A2D187D20C0008F
:109DC4000E49096A0F1810210026284632462346F8
:109DD40010F0B6F810280AD120680A49884207DB37
:109DE4000648006A8742EEDA0548861C00E0044E05
:109DF400304601B0F0BDC046700B0020200E00209C
:089E0400F9FEFFFFFEFFFF7FE6
:109E0C0030B50B4938220020B323DB000124A50315
:109E1C006407CC600D614B618724E40024338B61B3
:109E2C00CC6108624A6288623834CC6230BDC0466C
:049E3C00700B002087
:109E4000F0B58DB01D4FF8687969BA6912183B6A90
:109E5000D21800920818042100226B4610F07EF8F8
:109E600001AD302128460CF085FF009830210022FA
:109E70002B4610F073F8124D30281CD1F86A009967
:109E80004018302101AB002210F068F8302812D1C0
:109E90000120010610200EF0AEFEF868796909185D
:109EA0000D200EF0A8FEF868811C0F200EF0A3FE16
:109EB0000EF0B3FE002528460DB0F0BD700B00205B
:049EC000FAFEFFFFA8
:109EC400F0B593B01C4AD0690890976AD66A002FFF
:109ED400354600D13D46D06891690C18106A01904E
:109EE400506A00194019079007A8029008301821F9
:109EF4000CF03EFF0820129010481190002F00D063
:109F04007642019820184019811910910146283190
:109F14000F9130210022029B10F01EF8302808D146
:109F2400054A916A01204840906203A8FFF738FF70
:109F340000E0034813B0F0BD700B0020FEFFFF7F6C
:049F4400FAFEFFFF23
:109F480080B50848007801280AD107480068074901
:109F5800096A081A0649884202DB012000F00AF85B
:109F680080BDC046760D0020900C0020200E0020F9
:049F7800E9030000F9
:109F7C00F0B581B000900E48066807270D4D0E4CC9
:109F8C0030882968081801214902B21CFFF716F91C
:109F9C0036197F1EF4D1094800240470009800285B
:109FAC0004D0034D286808F06BF92C6001B0F0BDAB
:109FBC00980C0020D00C002002020000760D00202E
:109FCC0030B58DB0054601AC201D28210CF0CCFE1F
:109FDC0001204102218206490D6006490C91C00303
:109FEC00049005480190204606F016FB0DB030BDDC
:0C9FFC00A40C00208C6E01006C6E0100B3
:10A00800F0B58FB0F64800260670F043F5490860B1
:10A0180001200D904402204608F0E0F80546402152
:10A028000296002005912A46FFF7AEF807200003A4
:10A0380008900F200190C00206900E952E46163605
:10A0480030460EF047FF02281AD1287C022817D183
:10A05800284611300EF03EFF402811D1687B402879
:10A068000ED128460B300EF035FFA04208D1284605
:10A0780013300EF02FFF0121C903884200D1D6E02A
:10A08800FF20400028180B90EF1C2846243003902E
:10A09800002007900DF073FE681CD3490CF066FE93
:10A0A8003120F8712E20B871342078714E20387123
:10A0B8004920F8705720B870532078704D203870B8
:10A0C800E920287028460B3001210A9149020C9199
:10A0D80010F014F80996059E6E7328460E30382144
:10A0E80010F00CF802272F7428461130314610F072
:10A0F80005F8284613300A99C9030FF0FFFFF82026
:10A108000A906875099802210FF0F8FF2846183060
:10A11800FF2109910FF0F2FF28461A303F210490E1
:10A128000FF0ECFF292003998870802008702846DA
:10A138002730AE490FF0E6FF28462B30AC490B22FA
:10A148000CF00CFE28463630AA490A220CF006FE0E
:10A15800AA200B99487055200870079821462A466E
:10A16800FFF72EF828460C990CF000FE28460D3013
:10A17800039037262746384621462A46FFF720F817
:10A188003F19761EF7D1089F079E0B940E9D0998DC
:10A19800A87068700A982870384621462A46FFF742
:10A1A8000FF828460C990CF0E1FD3F193846214676
:10A1B8002A46FFF705F83F19F0070D9EE7D00E9CD9
:10A1C80020460C307D2189000CF0D0FD2046884BBC
:10A1D80006CB06C019889A788270018005210398F9
:10A1E8000CF0C4FD2820E0722046143000263146C9
:10A1F8000FF084FF049831460FF080FF7E482083DB
:10A208006682E68206980B9D29462246FEF7D8FF0D
:10A2180020460C990CF0AAFD3D2046020327304643
:10A2280029460E9AFEF7CCFF76197F1EF7D10E98B5
:10A2380008F028F8012635037049284608F00EF87A
:10A248003F2700280E975AD0790144180B96F1023F
:10A25800024646180898099529460A92FEF794FF7F
:10A26800029F38463D463178002901D0E52906D1BC
:10A278007F1E20346D1C2036402DF4D129E05F2943
:10A28800F6D1F17A0A460E9B1A400F2AF0D0102216
:10A298000A40EDD102221140EAD0718B0029E7D0A3
:10A2A8000A9800F0AFF9E5200C903070002D0B985B
:10A2B800DED038462246D37A0E990B400F2B06D1B2
:10A2C8000C991170431C203A83421846F3D20B981C
:10A2D800CEE700280A9D0ED001208202A818294640
:10A2E8000CF03CFD089C20460DF04EFD20460999D7
:10A2F8002A46FEF765FF284607F0C4FF0E9F612037
:10A3080040013F4907F0AAFF00283CD00546012438
:10A31800A602089831462A46FEF736FF0A96AA1979
:10A32800E102069809910B92FEF72EFF35480C952D
:10A338002D18059B2C462035687DE5281ED0002861
:10A348001ED0264640363078022101404A424A4112
:10A35800C1060D9900D5114638400F280D9800D038
:10A36800084600280AD128461530082226491F46E3
:10A378000FF0A2F83B460E9F002806D05B1ED9D1ED
:10A388000C9807F07FFF0FB0F0BD0198305A010418
:10A39800F6D081B20C9E304600F008F9E5206875C9
:10A3A800297839400F2904D1607521783940203C3B
:10A3B800F8E7089C20460DF0E7FC20460A9C214659
:10A3C8003246FEF7FDFE1D20800221463246FEF78A
:10A3D800F7FE069809990B9AFEF7F2FED0E7C046F9
:10A3E8000B0E0020BC0C0020FF010000DEBC9A0808
:10A3F8009C6E0100E47C010072450000E1A50100AB
:0CA408003FA70100CB03000054A7010097
:10A4140002480068106001207047C046A40C002068
:10A42400F0B581B01C4615460E460B48007801284D
:10A4340002D10020FFF7A0FD76020120470230463A
:10A4440039462A46FEF7A2FEF619ED19641EF6D126
:0CA45400002001B0F0BDC046760D0020D5
:10A4600002480068106001207047C046A40C00201C
:10A47000F0B585B015464A023F29049206D84248F5
:10A4800000210170C8433F49086014E00846403885
:10A490008009801C3B4A1368834202D13A48017804
:10A4A00006E010603F200140481E8141364801709F
:10A4B0000029049A49D0364E1640364800780128C3
:10A4C00013D135480068B0420BD1344800680721E9
:10A4D000334A049C0388F318A3424BD08018491ECA
:10A4E000F8D10020FFF74AFD049A2C4C2768002F72
:10A4F00007D12C482C4907F0B5FE049A07002060CC
:10A5000031D0039501200190440208250296B24201
:10A510000BD00720400230403880BA1C304621461C
:10A52000FEF736FE049A1E483F1836196D1EEED10E
:10A530001949029808601749019B0B7015460DF0E8
:10A5400027FC28462146039A0BE01048104082421F
:10A5500003D110460DF017FC049A01204102104669
:10A560002A46FEF731FE1148006A114908600020B2
:10A5700005B0F0BD801C01214A0229460CF0F2FB17
:10A58000F1E7C046BC0C00200B0E00200080FFFF4E
:10A5900000F0FFFF760D0020D00C0020980C00206A
:10A5A000020200000E0E00001DAE0100200E002071
:04A5B000900C0020EB
:10A5B400F0B581B00322920200908518CF03114CAC
:10A5C4003819403020212A46FEF7E0FD2878E52896
:10A5D40013D0002813D0E87A3F2101400F290CD072
:10A5E4006E8B002E09D0C00603D500983146FFF7C4
:10A5F400DFFF0098314600F007F82034E0D101B0C5
:08A60400F0BDC0460080FFFF1D
:10A60C00F0B581B00D4600900C246C43E008009925
:10A61C000E1830460EF05CFC0546042727403046E9
:10A62C000EF056FC074C08342146B940884381B2E1
:10A63C0030460FF061FDFD40254002488542E3D9CC
:08A64C0001B0F0BDF70F0000A2
:10A6540030B581B0164C6578217968460170A8063A
:10A6640003D51448006805F015FE68061ED5207849
:10A6740040061BD50F480068694605F0EBFD00282D
:10A6840012D02078BF21014021700B4801681022AC
:10A69400914301600320000208490A6882430120B3
:10A6A40000021018086001E00098207101B030BD6C
:10A6B40003B00640B40C002094F00F4010B00440E6
:10A6C4000D218901084A13680B43136007490A687E
:10A6D400102313430B6006494A7808710878402216
:10A6E40002430A707047C04610B0044094F00F4013
:04A6F40003B0064069
:10A6F800F0B585B00391049034480078012801D161
:10A7080000F07AF80127F802019031498A6A024379
:10A718008A621022D6432F4A1368334013600820F8
:10A728000290C34314681C4014603D022846573009
:10A73800294C2060606010683040106003200002DF
:10A74800666886437519656015681D40156022683E
:10A75800024322600868214A02400A60486A019A56
:10A76800104348621E4C0426A6700020E070A071B9
:10A77800207260711B48039A824200D30246D000BF
:10A788001949401811010CF089FAC104C90E217049
:10A798006070E07802990843E070E0783043E07038
:10A7A800E07820210143E170FF2000020F490A6888
:10A7B8008243B803101808600D48049901600348E3
:10A7C800077078030B49086005B0F0BD270C00201E
:10A7D8001080044094F00F400CB00440AFFFFDFF20
:10A7E80000B0064040420F0000366E010CE400E065
:08A7F800B40C002000E100E0B8
:10A8000070B517490868102290430860154A5368CC
:10A81000154C2340012005025B1953600B68082684
:10A82000B3430B6011682140491911600F490A6850
:10A830000F4B13400B60C0024A6A02434A620D4844
:10A840000178DF220A4002700178F7220A40027084
:10A850000178FB220A40027007480021017070BD98
:10A8600094F00F400CB00440FFFCFFFF1080044048
:0CA87000AFFFFDFF03B00640270C0020E6
:10A87C0010B50D480078012814D10C4C2078401CE0
:10A88C0020700B4800680EF027FA72B660682178C9
:10A89C00012903D1002801D00DF060F92078401E69
:10A8AC00207062B610BDC046270C0020200E002080
:04A8BC00B40C0020B8
:10A8C000F0B583B015000F460646846C029303D0A2
:10A8D000984740190190FFE7306C811C31640E4AA3
:10A8E000215AC806400E125830469047002811D110
:10A8F000002F094A01D07F1E0BD0002D05D00298F1
:10A900008047054A0199081A03D4306C811C3164D0
:0CA91000E6E7002003B0F0BDE46E01009B
:10A91C0010B5044688081C220240E06B8218E263E2
:10A92C000A0607D4490A226D8A4213D98A00A16CFF
:10A93C00E36C09E0226C911C216401218A43A16C17
:10A94C008A5AD200064B1B689A5808189047206008
:10A95C00002010BD206C801E2064022010BDC0465B
:04A96C00E472010090
:10A9700080B502480FF0E0FC80BDC046F80B002017
:10A9800080B502480CF00EF880BDC046F80B0020E0
:10A9900080B502480BF080FC80BDC046500C002002
:10A9A00010B584B00A480BF0CBFF0A4802242146B8
:10A9B0000BF05CFC02941920800101900649009183
:10A9C000081806490422064B0CF090F804B010BD9C
:10A9D000F80B0020500C002000F3FF1FD2A3010051
:04A9E000E5A90000E5
:10A9E40001241A480BF0DCFF1948007800280CD029
:10A9F40000F0A8FB002808D1014603F0EDFA01207D
:10AA0400144903F0E9FAFDF719FE01F0EFFE0546DB
:10AA140000F024F8064608F027F8FDF70BFF074678
:10AA24000A480FF087FC6842684171427141002F67
:10AA3400224600D00A46002A214600D101460029B8
:10AA4400CFD1012104480BF04BFCCAE7F80B0020DE
:0CAA5400190E002070170000500C0020AC
:10AA6000F0B58BB00AF03AFA03210140881E411E6E
:10AA70008841554909684A424A410243534800689F
:10AA8000411C4B424B4101251343019500D097E0F7
:10AA90004F490B684F4A146AE31A834200DA8FE089
:10AAA000126A101A08604C4800680028474C00D110
:10AAB00086E00027F843029001200190AC20784303
:10AAC000464909680D18686E002812D0294664317D
:10AAD00000200860216800290BD1F900404A515834
:10AAE000A822AA582B6E0090284605F0F1FB012001
:10AAF000E865E86D002859D028460FF0ADFAE96CFA
:10AB00002E464C36002907D12946503128460EF0F2
:10AB1000A0F9010030604FD02A6DA86D029B09F0AA
:10AB2000A9F8002848D4284650300021019131600E
:10AB3000696D0068081868650ED02C465434A86DFD
:10AB400009F0A6F806462068811B28460EF074F925
:10AB50002660002001901D4C28460FF081FA024625
:10AB6000202800DB2022002A20D02E4658363068CC
:10AB700003A9029B09F072F80246012816DB03A91B
:10AB800028460EF0F3F828460FF06AFA024620280D
:10AB900000DB2022002A07D0306803A9029B09F0BD
:10ABA0005DF802460128EADA002001907F1C0A487D
:10ABB0000068874282D303E0686D0028BDD1CBE7EF
:10ABC00001980BB0F0BDC046040D0020080D002018
:10ABD0000C0D0020200E0020E00C0020100D0020A5
:04ABE000241000201D
:10ABE400F0B587B04948056806A8012103F00EFBBB
:10ABF40005A8042103F00AFB03A8061D0EF0F8FCC7
:10AC04000100059819D003F00BFC03AC404F00255C
:10AC1400204639460FF078FA304629460FF074FA88
:10AC240008352046294603F00DFB03A8844202D0D0
:10AC3400204607F029FB07B0F0BD083007F0D0FA32
:10AC440004460220C7430599002C1DD00195201D00
:10AC54000290204603F0DAFA06A8007800250428BA
:10AC64004FD8C046784400794000874402133038F6
:10AC74003E0020460EF035F902460198029E314608
:10AC84000EF072F80746C3E7084603F0C9FB7F1CC1
:10AC940003ACBCE720460EF024F90290204607F0EE
:10ACA400F3FA0298083007F09BFA03AC00282AD084
:10ACB4000146083104460198029A0FF0B7F9054697
:10ACC4001648006A16490860261D0027A0E720469A
:10ACD4000EF007F9014601980FF09CF910E02046A8
:10ACE4000EF0FFF80C4908600AE020460EF0F9F86F
:10ACF400024608480168009501982B4605F0E6FADB
:10AD04002F46029E84E77F1C82E7C046100D002078
:10AD1400FAFEFFFF24100020080D0020200E002062
:04AD24000C0D0020F2
:10AD2800F0B589B00EF064FC424E3060AC24444368
:10AD38004149204607F092FA40490860002877D038
:10AD480021460CF013F83068032871D800280CD07D
:10AD580000243B4D2046FDF7CDFD2860002867D034
:10AD68000835641C30688442F4D30EF03FFC01219E
:10AD78004140344C216058D009F02AF92068002855
:10AD880053D03068002850D000212F4A58242B482F
:10AD980000680329069105940492079002D210686E
:10ADA800029001E00DF0A6F84024009401200390E1
:10ADB800022100263246334609F078FB08AF387086
:10ADC8000094059C07980319103330460221324637
:10ADD80009F06CFB78700096032108220398002381
:10ADE80009F064FBB870384608F058FF079D2851F1
:10ADF800029908F01FFF2859144908F023FF7878B2
:10AE08001349144D2A46002309F0CCFF387812491B
:10AE18002A46002309F0C6FFAC34049A121D06998D
:10AE2800491C044800688142B1D30C4800210160E4
:10AE380009B0F0BDE00C0020D9A30100100D0020DE
:10AE480024100020040D0020646F0100F97E010029
:10AE58005C0C002041970100680C0020080D0020C0
:10AE680010B5AC2242430B48006880180A68A82332
:10AE7800C250012242664B799C1E62426241012BFC
:10AE880001D0120200E0044A097909070909891862
:0CAE9800016610BD100D0020000101003B
:10AEA400F0B5B1B0044621AD0221284603F0AEF955
:10AEB400298811A803F0AAF92888042804D311A822
:10AEC4000EF00FF8074600E00F4F22AD281D382181
:10AED4000BF04EFF00262E73012129710B48299097
:10AEE40001A82690229700F0D1F809482018643868
:10AEF4000078800007490958284688472698002189
:10AF040000F0C4F831B0F0BDFF000003706F010021
:08AF140029AE0100D46F010019
:10AF1C00F0B58DB00024E643882A01D23446A3E074
:10AF2C000D460746029240690690B8690590882143
:10AF3C0028460BF019FF39684D480029024600D00D
:10AF4C000A464C498A424C49079100D04B498242EF
:10AF5C0000D007912846813004900D20039038567C
:10AF6C003B7B002801920FD5C0B201210093049BBA
:10AF7C0059700905C2030A4007235B0500051840F8
:10AF8C00009B80184840A864B87B411E1F2902D240
:10AF9C008640F04307900599042913D3069E30464A
:10AFAC001F460DF09AFF01466864361D6E603046F0
:10AFBC000DF0F2FC3B46686CC1007018059A511AF2
:10AFCC00091F00E00698042901D80E4600E04E1F28
:10AFDC002F465C371A06002E0FD00429059200D993
:10AFEC00401D06900DF079FF01240440059A02D013
:10AFFC00234908400246042E02D1FF2038710DE08F
:10B00C00069E30793871701D05920DF066FF6865EB
:10B01C00093630460DF061FF059AA8650798E8647B
:10B02C002A650498047003980002002C014600D194
:10B03C0021463980002C01D0103000E01020029CF9
:10B04C007880883C10D08821284607F029F908AE72
:10B05C00142130460BF088FE01200A9001980990CB
:10B06C00304602F0D3FA286020460DB0F0BDC04641
:10B07C00FF000003FF00000EFF0F0000FF030000A5
:04B08C0000F0FFFFD2
:10B0900070B582B004680029666D13D0F16A20464D
:10B0A0008847B1692046884710480068104988429F
:10B0B0001AD2B368012501AA204629469847019A69
:10B0C000AA430CE009480068094988420CD2B368D9
:10B0D000012501AA204629469847019A2A43019250
:10B0E000336901212046984702B070BD480D002009
:04B0F000A6AE000008
:10B0F40080B57F2909DD803913291AD801208840B9
:10B104000E4A10420AD00E4880BD0B480229FBD3D8
:10B1140004290AD008290CD1263080BD002906D084
:10B12400132906D10EF066FD80BD012080BD1F20CD
:10B1340080BD002080BDC0461100008034FC0300A7
:04B14400012F008057
:10B1480000200A21044A535A002B00D0401C243105
:0CB158009A29F8D17047C0467408002006
:10B16400F0B581B0424C2068401C20600A287AD196
:10B1740040480168491C0160012002F02DFF0025B0
:10B1840025603E480078002808D03B480078002815
:10B1940004D13B48006A3B49884201DC0CF0D4FDF1
:10B1A400394E3768012F15DB09D1394A1068411C23
:10B1B4001160622803DC00200DF03FFC05E0002450
:10B1C40020460DF035FC32480460324887420FD0E7
:10B1D400781C0EE0002F1BD500200DF02EFC3068EB
:10B1E400401E30602949884212D1FDF727FA0FE04A
:10B1F40002203060284988420AD364210EF0C4FF3B
:10B20400002803D000200DF013FC01E00DF015FC24
:10B21400FDF722FA21490A68214B98420AD32148B2
:10B2240082420CDC002A02D14868401C48600A3281
:10B23400154604E0002A02D04868401C48600D60AE
:10B2440019490868401C08600A280CD100200860CD
:10B2540016490A68521C0A600A2A04D10860144874
:10B264000168491C016002F0C3FE01B0F0BDC04694
:10B27400540D0020400D0020170E0020140E002055
:10B28400200E0020BFD401004C0D00200CFEFFFF57
:10B29400140D0020FFFFFF7FB3020000F0FFFF1F2B
:10B2A4004C040000FF5B2605580D00205C0D0020B7
:04B2B4003C0D00202D
:10B2B80070B50446194D287800281AD12146C73997
:10B2C8000120122912D801228A40154B1A4206D0B1
:10B2D80015480078154904F091FB012008E0114B4E
:10B2E8001A4205D1122901D1002001E0052C00D114
:10B2F80028701E2C07D3B82C04D872B6002002F090
:10B30800E9FEFAE76534E0B2800009490858804749
:10B3180003F024F9074800F00FF870BD150E00205F
:10B32800C0C1000001000200160E002040420F00BC
:08B33800FC6F0100C0270900B1
:10B3400010B50C4C0A490A6A00212388002B04D04E
:10B350000223E358D31A834204DA2434491C042913
:10B36000F3D110BD084604F071F90020208010BD13
:08B37000200E00207E080020E1
:10B37800F0B581B0174D0024294612390A88824257
:10B3880006D02435641C042CF6D10020C4431BE0ED
:10B3980000260E802F1F3868002802D006F072FFA2
:10B3A8003E602868002802D006F06CFF2E60204618
:10B3B80004F048F9FFF7C4FE002805D1FDF75EF94F
:10B3C8000348067003F0E2F8204601B0F0BDC0461D
:08B3D800150E00209008002072
:10B3E00080B504200EF0F8FC03480EF0F5FC0120B7
:0CB3F000C0020EF0F1FC80BDE32E000056
:10B3FC0010B582B001AC0221204602F003FF218877
:10B40C000648814202D101A8002101807D20C000A4
:10B41C00484304F029FB02B010BDC046FFFF0000FA
:10B42C00F0B59DB009AD01242846214602F0EAFE94
:10B43C0007A8042102F0E6FE06A8042102F0E2FEB1
:10B44C0005A8214602F0DEFE04A8214602F0DAFE31
:10B45C0008A8022102F0D6FE2878652810D06428AE
:10B46C005BD108A8008800280FD08F21C943414A1E
:10B47C0053189A241C5B84424BD02431F8D14CE0F5
:10B48C0008A80088FFF772FF47E002943B48068843
:10B49C00384F761C0A217A5AB3B29A42F9D0243129
:10B4AC009A29F8D108A90E80068005A8027804A86C
:10B4BC000078019007980090069B002005463C18E8
:10B4CC006189002910D024306D1C9028F7D12C48AC
:10B4DC0014461D46FFF72EFF2B46224600200299EC
:10B4EC00C9070290E9D118E000993950668101989A
:10B4FC006072227263602048006AE0600AA80EF055
:10B50C004BFC0A980B9920616161284601F09EF969
:10B51C0003E01948006A9C2158500AA8039008A817
:10B52C00018803AC20460DF0C1FC042120460DF02F
:10B53C00BDFC102120460DF0B9FC204604210DF075
:10B54C00B5FC0025039C0B4E7119102220460BF004
:10B55C0003FC24351034902DF6D10394FDF778F8C4
:10B56C00014603A80DF0A9FC0AA84C2102F066FEC6
:10B57C001DB0F0BD74080020200E0020360C0020F9
:04B58C001027000084
:10B5900080B5054801210170044802F05BFF0448B2
:10B5A0000DF061FA80BDC0460E0E0020480D00204F
:04B5B000104704003C
:10B5B40030B585B001A8102102F028FE019A7F2A37
:10B5C40013D8531F0C2B43D80121C8437B441B7948
:10B5D4005B009F44063D3D595959423D3D59494FF1
:10B5E400520002980EF016FC4DE00120C043D10930
:10B5F40002290DD8FF21C9435118032944D8C04654
:10B604007944097949008F44013B4353324838E077
:10B614000321CC01214680318A4235D2611C8A4201
:10B6240011D1314901AA138900220D889D4204D009
:10B634002431521C042AF8D1421C0299104601F00C
:10B6440023F90020019AA11C8A421DD1204818E048
:10B65400029910460CF092FB16E0029A012A13D1CB
:10B664002048017001200FE01D48416A00290AD0DA
:10B67400884709E01948017005E007F047FF03E037
:10B6840014480299016000200DF0EBF905B030BDBB
:10B69400154A01A90B89002114889C4204D0243244
:10B6A400491C0429F8D1411C084601F0FBF8EBE7DA
:10B6B4000D4A01A90B89002114889C4204D024322C
:10B6C400491C0429F8D1411C08460EF067F9DBE750
:10B6D400DC0C0020640D0020600D0020190E0020F9
:0CB6E40094720100780D00207E08002008
:10B6F000F0B583B001277D031E49284606F0B2FD50
:10B7000000282CD00446002631462A460EF0C6FA00
:10B710003F022046394602F07BFD02A8042102F0D8
:10B7200077FD6846082102F073FD2046394632460F
:10B7300002F076FBF643029988420CD10E48694626
:10B7400008220DF0BDFE002805D1204629460EF046
:10B75000CDFAC6170643204606F098FD05E00C35E5
:10B76000284602F05FFE0020C64330460DF07BF90C
:0CB7700003B0F0BD03A6010049AE0100CB
:10B77C0070B584B0012004021A49204606F06CFD15
:10B78C00002823D00546214602F03CFD03A80421E5
:10B79C0002F038FD01A8082102F034FD00262846ED
:10B7AC002146324602F036FBF6430399884213D108
:10B7BC000D4801A908220DF07DFE00280CD1284669
:10B7CC0021460CF0FEFBC617064305E00C34204660
:10B7DC0002F022FE0020C64330460DF03EF904B0C4
:0CB7EC0070BDC046E8A3010049AE01009A
:10B7F800F0B5D9B058AD01272846394602F004FD06
:10B8080057A802F023FE2C78032C1CD8A00001A115
:10B81800085887462DB8000059B800002DB8000018
:10B82800B9B8000002AD0821284602F0EDFC7B48BB
:10B83800294608220DF040FE00286DD13D02002C5B
:10B8480077D02C4676E05798002868D00C3067E00F
:10B858007803579981425BD10C30714906F0FEFCA0
:10B86800002800D197E0054657990C3102F0CCFC2E
:10B87800579900242846224602F0CEFA06465798E1
:10B8880028180DF02CFBE44386420DD1579EA819C9
:10B89800011D624808220DF00FFE002804D1284639
:10B8A80031460EF01FFA044620460DF0D8F86DE038
:10B8B8003802579981422BD10C30574906F0CEFCFB
:10B8C80057990C31002824D0044602F09DFC579962
:10B8D800002520462A4602F09FFA06465798201867
:10B8E8000DF0FDFAED4386420DD1579EA019011DBA
:10B8F8004A4808220DF0E0FD002804D120463146D0
:10B908000CF061FB054628460DF0A9F820463EE0FC
:10B918000C31084602F082FD0020C04306E00820F2
:10B92800579002F07BFD0020C043401E0DF097F8B1
:10B938002FE07C033A49204606F090FC0646204654
:10B948000DF08DF8002E00D02546019517AD002E7C
:10B9580000D035460026019FA74200D3274658A8A5
:10B9680000780028284631463A4602D00EF0D4F92D
:10B9780001E00EF08FF92846394602F061FCE41B1D
:10B98800BE19002CE7D117A8854202D0284606F038
:10B9980079FC59B0F0BD019702A802F095FA0DF0B4
:10B9A80025F80025579E2F46FF2E01D9019806023B
:10B9B80017AC2046314602F027FC204631462A467D
:10B9C80002F02AFA054620463946324602F0A2FA23
:10B9D8005798811B5791F719B0420E46E4D117AC1E
:10B9E8000C21204602F010FC20460DF078FAA842FF
:10B9F80007D117A8011D094808220DF05DFD002890
:10BA080004D00CF0F3FF0020C44300E0002402A897
:10BA180002F04CFA204689E77BA7010049AE0100F5
:04BA280062A7010010
:10BA2C0010B582B00020C04300F010FF01AC032120
:10BA3C00204602F0E7FB20782421414303484018BC
:10BA4C00617800F0DFFF02B010BDC0467408002022
:10BA5C00F0B585B004AD01242846214602F0D2FB96
:10BA6C002878062800D98AE0784400794000874479
:10BA7C0003078686861C570005200CF0EEFF7EE03F
:10BA8C0006F02CFB0CF0DBFF06F02EFB0CF0D7FFC6
:10BA9C0006F074FB01200CF0CDFA0CF0D0FF002066
:10BAAC000CF0C8FA06F072FB69E0394F38680028D0
:10BABC0006D134483449016006F0BEF806F0E4F8CB
:10BACC0003A802F0C1FC64023249204606F0C4FB14
:10BADC0000283AD00546039EA64200D326462846A7
:10BAEC00314602F08FFB2948006800280DD13868D8
:10BAFC00430A029301930096002001A92A4605F0FF
:10BB0C00D5FD002801D521490860386880193860B6
:10BB1C000398861B0396DFD1284606F0B1FB2EE076
:10BB2C0018481949016006F087F806F0A7F8044692
:10BB3C0006F0AAF8154E3068002800D420460028DC
:10BB4C000DD400200CF089FF15E0039802F064FC82
:10BB5C000E480168002912D1C94301600FE006F0BC
:10BB6C0011FD04460EF0D4FA05460CF076FF204683
:10BB7C00294602F063FB002030600549086005B0DF
:10BB8C00F0BDC046380D00201C6E0100C40C002016
:08BB9C00C00C002015A60100F9
:10BBA400F0B5A3B002A8042102F030FB02980028EB
:10BBB40049D028490978019100273D46C1073CD066
:10BBC4000D2D01D1022005E00E2D02D12248066878
:10BBD40003E02846FCF7E8FD0646701C27D01C2D20
:10BBE40026D801242046A8401C49084220D00D2D07
:10BBF40013D01B48007802280FD0002806D18021DA
:10BC0400042218480EF048F81548047015480068D6
:10BC1400002802D440004010361A0198002807D1A9
:10BC24007D20C10030460DF081F9064600E0C64390
:10BC3400B80003A90E507F1C0298400802906D1CA6
:10BC44000028BBD100E00027B90003A802F0FAFAEB
:10BC540023B0F0BD780D00203C0D00201C200018FE
:08BC6400180E0020500D002015
:10BC6C0070B5A2B001A8042102F0CCFA0199002011
:10BC7C00002913D00C4A0346CC0709D0032B01D85A
:10BC8C00146801E00024E443850002AE7451401CAA
:10BC9C00121D49085B1C0029EED10191810002A8FC
:0CBCAC0002F0CCFA22B070BDF0FFFF1FC8
:10BCB800F0B583B002A8012102F0A6FA01A8042178
:10BCC80002F0A2FA6846042102F09EFA002840D445
:10BCD8000198009C20433CD006F062FA844202D9C5
:10BCE80006F05EFA04462149204606F0B7FA002815
:10BCF80031D00546AA2221460BF039F8009FA74209
:10BD08003E4600D3264602A8007864280CD0652851
:10BD180026D102F0B9FB0028FBD1019828602846FB
:10BD2800314602F04FFB05E02846314602F06CFA36
:10BD380000280BD4BF1BE2D102A80078652801D1E6
:10BD48000EF050F80198401E0190D7D1284606F011
:10BD580099FA03B0F0BD72B6002002F0BBF9FAE719
:10BD680072B6002002F0B6F9FAE7C04627A601002D
:10BD780000B583B001A8012102F046FA002811D1CC
:10BD880001A80078FE2803D0FF2804D1022004E08F
:10BD98000548007801E002F047F8029002A8042163
:0CBDA80002F04EFA03B000BD160E0020A1
:10BDB40080B50448042102F045FA0020014602F04F
:08BDC4000BF980BD9071010034
:10BDCC0010B582B001A80124214602F01BFA684686
:10BDDC00214602F017FA022002F01EFB002813D1B4
:10BDEC006846007801990902081880B2FF210231D7
:10BDFC00884205D00549884202D00549884200D1C5
:10BE0C00044C20460CF029FE02B010BD01060000C7
:08BE1C0001030000FF05000016
:10BE240010B582B001AC0421204602F0EFF960881D
:10BE340040BAFF210231884205D00649884202D027
:10BE44000549884203D101A80078FFF729F802B018
:0CBE540010BDC046010600000103000004
:10BE600030B589B001AC202120460AF083FF084993
:10BE700020460EF04BF90C20A0720648208106489F
:10BE800002902046202102F0DFF909B030BDC04603
:0CBE9000335A6AB8E14000001C7C91624B
:10BE9C00F0B583B002AC0321204602F0B3F9277849
:10BEAC006078A17809020D186C1C2D49204606F00B
:10BEBC00D3F900282CD00F263E400121B14049086F
:10BECC0000910F2F019029462CD802F0A7F90024DD
:10BEDC0002F0ACF92118691A002801D0FF29F7DD0E
:10BEEC00FF290F4601DD3F229743002800D10F4662
:10BEFC00002E04D000987843800A0AF043FE019883
:10BF0C0000193C19AC421ED0394602F059FADFE751
:10BF1C00284602F081FA28460CF09AFD06200DF016
:10BF2C004BFF1AE002F06EF9002E03D00098684324
:10BF3C0000F018F80020019E70553046214602F0A2
:10BF4C007DF9304607E00021C155791C02F038FA22
:10BF5C000DF046FF019806F093F903B0F0BDC04612
:10BF6C0090A7010008B4024B9C4608BC6047C04631
:04BF7C005110002040
:10BF8000F0B5C3B042A802F065FA41A802F062FA27
:10BF900041980221C9431A4A1468621E8A422AD86B
:10BFA000032102460A4026D1429D294023D1FF2881
:10BFB000009002D90121090200910099401A419094
:10BFC0000027E8190CF08FFF064601A8C01974403D
:10BFD00021460EF09BF80B4846403F1D0098B842A2
:10BFE0003446EED101A8009902F02EF9ED194198DE
:10BFF0000028DCD101E00CF031FD43B0F0BDC046BB
:08C00000DC0C0020A5A5A5A59C
:10C00800F0B589B004460720C543E81D049000F048
:10C018001FFC0694CD2C059508AC204605D10221BD
:10C0280002F0F2F82078012104E0032102F0ECF894
:10C038006078022108AA5118097809020818C41D55
:10C04800E7087D004648007801210191002813D0B7
:10C05800284602F0E3F938460CF0FCFC06250027D8
:10C068000698CF28019E62D14248007800285ED009
:10C0780028460DF0A3FE5AE001202843394906F06E
:10C08800EDF80028E4D00646C0190790394602F0BA
:10C09800BBF803963046394602F0C2F805980443C7
:10C0A800601C02900024264602F0C2F83118791A62
:10C0B800002801D0FF29F7DDFF290D4601DD3F22C9
:10C0C8009543002800D10D4627490978012914D144
:10C0D8000499264A1160E900002801D1029809183C
:10C0E800059103F0B3FC0398801907998919204A30
:10C0F800126854680A46059BA047AC190698CF28D1
:10C10800079A09D11B480078002805D0BC4203D102
:10C118009019002141556D1C9019294602F052F9D9
:10C12800BC42C0D100242546019E039F00E034464E
:10C1380011480178002900D105700DF053FE0698CA
:10C14800CF2801D10B480678F00702D128460DF018
:10C1580035FE002C02D1384606F094F809B0F0BD3F
:10C168001F0E0020F7A30100160E0020440D00202A
:0CC17800641000200E0E0020350C00208A
:10C18400F0B58DB005460BA8082102F03FF8002059
:10C19400039068630B9C0C9FBEB206F003F88642C2
:10C1A400324600D30246012000038242099502D997
:10C1B400FF200002024040490492104606F050F865
:10C1C400050066D03D4807400320204008950797A6
:10C1D40019D027460421081A8642344600D304465F
:10C1E4002846214602F012F80998C2692946956842
:10C1F400009139462246079BA847311BA04246D1ED
:10C20400E419089D00E03146049800294BD00296B9
:10C214000E4686420696374600D3074628463946D8
:10C2240002F000F805940A94039C254602F002F8F3
:10C2340029187E1A002803D0402EF7D33F208643C6
:10C24400002C15D1089842190998C1698C6800928C
:10C254000A993246079BA0470024B04200D0E44329
:10C264000A9830180A9003D30999486B401C486314
:10C274007519BD42DAD1069EF61B002C08D1059C27
:10C284003C19002E089D0498C3D1029C08E00E4678
:10C29400089D0020C443002E02D0304602F0C0F8AE
:10C2A400002D01D103E03446284605F0EDFF204679
:10C2B4000CF0D7FB0DB0F0BD1DA401000000FFFF82
:10C2C400F0B597B004460BA8082101F09FFF234660
:10C2D400002060630C990B9C06918DB2112D0DD337
:10C2E4001F4626462C1D05F05DFF844200D30446FC
:10C2F400204605F075FF221F34463B46002800D136
:10C3040010220121059189028A4201D8049202E097
:10C3140035491140049133490DAE002800D006463A
:10C3240006980840069002952946079603922F48DE
:10C3340012900020169014901396059840021590C0
:10C34400D869456812A8009601909142049A00D8D1
:10C354000A460E461F46184621460A92069BA847DF
:10C36400054601281FDB761B2C19099402D3786B30
:10C37400401C786316982C1A002E1FD0089685420C
:10C3840004D007990818214602F01EF80DF02CFD80
:10C394000A9885423B46099C079E039A0899C6D091
:10C3A4000298451A03E01698311A079E02D00846EF
:10C3B4000CF052FB28460CF054FB0BE0079E70195E
:10C3C40002990DF0A1FE16983018211D01F0FCFF12
:10C3D4000DF00AFD0DA8864202D0304605F054FF48
:10C3E40017B0F0BD0000FFFF00FEFFFFE98201006F
:10C3F40070B5044600290ED0094D286A46182069F4
:10C40400E169096A8847002804D1286A301A01289A
:10C41400F5DA002070BD2069E169096A884770BDBA
:04C42400200E0020C6
:10C42800F0B587B0049313460F460546868C0C9AE0
:10C43800D640069305901ED0296A9E42344600D302
:10C448001C46254695403846029103922A460AF032
:10C4580085FC069B301B9E42039A059E0DD90299C6
:10C46800491990400290306A029A0AF077FC0298C3
:10C47800069B039A02E01C4604E09040B0841C1B13
:10C488007F1935461448006A002C1ED004994018BC
:10C4980003902869E9698E6C049900910192002142
:10C4A80015463A46B047C1178843241A0A49096A0B
:10C4B800039A511A0129069B2A4605DBA8403F1812
:10C4C800002C059DE5D100E0059D38200121295467
:0CC4D800EA84181B07B0F0BD200E002005
:10C4E400F0B585B0054603AE0821304601F08EFE56
:10C4F400F08831888900884200D30146081D05F080
:10C504006FFEF188224F002818D00446002901D07C
:10C5140001F07CFE03A840790426012817D00028E6
:10C5240028D103A84388028802200090211D2846B0
:10C53400FFF778FF01468000061D1CE0084601F065
:10C544006FFF029702A8042101F07CFE1DE0022186
:10C5540029852869EA69956C03AA1388D7885288C3
:10C5640000920191B908C91A890062180121A847EB
:10C57400014600E0791C20460DF0C6FD20463146F8
:10C5840001F060FE204605F07FFE05B0F0BDC04618
:04C59400F9FEFFFFAE
:10C59800B0B5002901D02D4900E00121002851D073
:10C5A8004368002B01D0022319438368002B01D074
:10C5B80004231943C368002B01D0082421430469CC
:10C5C800002C01D0102421434469002C01D02024E0
:10C5D80021438469002C01D040242143C469002CE4
:10C5E80001D0802421430124056A002D01D02502B1
:10C5F8002943456A002D01D065022943856A002D2B
:10C6080001D0A5022943C56B002D01D0250329437C
:10C61800002B01D063031943436D002B01D0A30401
:10C628001943836D002B01D0E3041943836C002B5D
:10C6380002D00923DB021943436C002B02D01046B9
:10C648009847014608460CF00AFAB0BD01000040C0
:10C65800F0B593B004A83C210AF088FB03A8012197
:10C6680001F0D2FD02AD2846012101F0CDFD287868
:10C6780000284CD004AC201D0090661D083401AD84
:10C688000121284601F0C0FD2878C01F03280BD8D7
:10C698007844007940008744010C101602A80178FC
:10C6A80004A801F0DDFE25E002A8007801F0B6FE3E
:10C6B80020E002A80178009802E002A8017830463C
:10C6C80001F0A2FD16E002AD2F78082F00D308274D
:10C6D8002046394601F098FD2878C51B0AD028461F
:10C6E800154905F0BBFD099000280CD0294601F03A
:10C6F8008BFD0A9502AD0121284601F085FD2878B9
:10C708000028BCD103E002A80078C01BCEE703AC28
:10C71800207804A902F0BAFF207802F01DFF044631
:10C728000069002806D16069002803D005F0AAFD39
:0CC738000020606113B0F0BD0AA40100F5
:10C74400F0B581B06C460221204601F05FFD2078EF
:10C75400032838D83C214143204A5418E1696A46E9
:10C76400002930D05678142E2DD825461C35242285
:10C7740042431B4880181B4A126AC260206927463C
:10C78400103700280CD1A069002802D06069002865
:10C7940002D0204602F0EEFE3868002815D0296841
:10C7A40038220123A354CA6C002A10D001219047D7
:10C7B400B0000D4909582046884738682968CA6C72
:10C7C4000021904701E001F053FD01B0F0BDB0003D
:10C7D4000549095820468847F7E7C046C4060020A3
:0CC7E40074080020200E00209471010059
:10C7F000F0B581B0174D012000900026124F134B69
:10C80000134CB8190169002917D03821415C00295F
:10C8100013D03921415C00290FD12968C918226A37
:10C8200091420ADDC169096D002906D01C4688477E
:10C83000002800D100902346054C24353C36F02ECC
:10C84000DFD1009801B0F0BDC40600201027000021
:08C85000200E002080080020EA
:10C85800421C114600D30421824200D200203C220F
:10C868004243074BD21838321346283B1B68002B2B
:10C8780001D0002313703C32401C8842F4DB70471F
:04C88800C4060020C2
:10C88C00002808D43C224243034880180269002A3D
:0CC89C0001D0392281547047C4060020EE
:10C8A800B0B53C2141430A484518E869026E0120A9
:10C8B800C443002A09D0286903219047002804D0DE
:10C8C800014610352868884700242046B0BDC04678
:04C8D800C406002072
:10C8DC0030B585B0044603A8082101F093FC0398F9
:10C8EC00012804D104990143E162002513E0E069B9
:10C8FC00026E0B4D002A0ED02069072190470028AC
:10C90C0009D0014603980190049802902069009088
:10C91C0068468847054628460CF09FF805B030BDA0
:04C92C00FAFEFFFF11
:10C93000F0B587B00291059005A804F0ABFE059D07
:10C94000297800295CD000200390C0430190DF20AB
:10C950005F2905D001405B391922D243914251D35E
:10C96000039EA9194B781A46303A19460140761CA5
:10C970005F2BF6D041390A2AF3D31A29F1D30027C5
:10C98000224C04976068B04206D12068294632469E
:10C990000CF096FD00280BD0052F01D8002000E0F8
:10C9A000012004907F1C0C34072FEBD1174C54341A
:10C9B000A819059005A83D210BF024FD002821D4DD
:10C9C00005A806A90CF00CFB0498C00705D1A268C5
:10C9D000002A02D006980299904705A804F05AFE52
:10C9E00005980078002600280DD005A83B210BF003
:10C9F00009FD002806D4059D29780029A7D102E069
:10CA0000002600E0019E304607B0F0BDE87101004D
:10CA100080B5012903D88900014A5158884780BD53
:04CA20003C72010063
:10CA2400F0B585B0044600270497C069002802D0F9
:10CA340005F02AFCE76103A8042101F0E7FB05F0F7
:10CA4400B1FB0646274905F00BFC054603998E42C7
:10CA540003D2084601F0E4FC26E001F0D7FB01A96B
:10CA64008F808F7101972846FFF760FF00281BD441
:10CA74001D48301818D44B208600284631460AF049
:10CA840077F92846314605F00FFCE5616021284618
:10CA94000AF06EF92846683028652866134800783D
:10CAA400002811D1014610E00020C0430490002D5D
:10CAB40004D0284605F0E8FB0020E06104A8042126
:10CAC40001F0C0FB05B0F0BD0949072800D00F46AE
:10CAD4006F6601A949790029F0D10128EED103F04C
:10CAE400C7FAEBE771AE0100D4FEFFFF160E00207B
:04CAF4005872010073
:10CAF800F0B593B0074612A8042101F085FB05F0B4
:10CB08004FFB584945181C24284621460AF0C6F808
:10CB180001460120002D054600DA29461298814277
:10CB280000D301460AA802900CA80390002912D04D
:10CB38004D48007800280D4602D00020039009E0F7
:10CB48004C434A49204605F089FB294614226A438A
:10CB5800039080180290F86909900028009165D028
:10CB68000398002862D00998406E00285ED008908B
:10CB7800C16A0998884700200190C0430490129820
:10CB8800A84200D32846054614210591414303983D
:10CB980001F03AFB01F078FC0028FBD1002D3AD0D7
:10CBA80001A8C1C8069507903C7CB87C00281DD018
:10CBB8002F48056A787C002801D00C2000E0082066
:10CBC80008990B5811AA099821469847002819D4A2
:10CBD8007968BA68119B0B40934213D02448006AC5
:10CBE800401BF9688842E5DB04980BE0787C002854
:10CBF80001D0059800E0102008990B583A68099868
:10CC080021469847119903C60798401C00361437E7
:10CC1800069DA842C7D1E900029801F0D3FB1298FB
:10CC2800401B1290ACD10DF0DDF810E014211298E1
:10CC3800484301F0F3FB00200B90C0430A900AA878
:10CC4800082101F0FDFA1298401E1290F7D10098C1
:10CC5800002804D00398002801D005F013FB13B076
:10CC6800F0BDC04600FEFFFF1F0E00204DA40100CE
:04CC7800200E00206A
:10CC7C00F0B583B0029105465C202B5A2868476DAD
:10CC8C00012672070A4928460BF0CAFB01907B6803
:10CC9C0028680321002298470446019804437B68C6
:10CCAC0028680121029A98472043C01703B0F0BDB1
:04CCBC00F0ED00E0B7
:10CCC000F0B581B0046805468135560325D46E78E9
:10CCD000002E01D0866C1CE003263605076D9F42AE
:10CCE00017D1476C002F0CD000954568FE007619CF
:10CCF000083E35688D420AD9083E7F1EF9D1164696
:10CD000006E0E978002904D00F210E0501E07668DD
:10CD1000009D012149070A403243069E2261016DB0
:10CD2000994201D1C26C00E00D4A6261A361002703
:10CD3000A7770122627726602D78257799420AD15C
:10CD4000014660310978FF2908D0E260416D6160D9
:10CD5000806DA06002E06760A760E76001B0F0BD91
:04CD6000FF030000CD
:10CD6400F0B587B05E21435A05686C6D01214A070E
:10CD74002649029001920BF057FB04906368002649
:10CD840028463146324698470746059463682C4640
:10CD940006AA284603960021984704990F4307439F
:10CDA40019D5029801465E310B881849019A0BF097
:10CDB4003BFB0490059C63682846314632469847FD
:10CDC40007460498074363682C4606AA28460021B0
:10CDD4009847384318D4059A0698010310D5164687
:10CDE40053690B4A20460021984773682046002166
:10CDF40000229847736806AA20460021984706989F
:10CE04008003C00F07B0F0BDF043FBE7F0ED00E096
:04CE140003005FA018
:10CE1800F0B583B004465C20235A2668756D01205E
:10CE28004207164920460BF0FDFA83200290205C49
:10CE3800C000134947186B69032130463A469847A2
:10CE4800204600F021F802460298205C833400282E
:10CE58000ED00C4807406B690321019130460292BD
:10CE68003A4698476B680022304601999847029ADB
:10CE780000202070104603B0F0BDC046F0ED00E081
:08CE880003005FA0F3075FA0A7
:10CE9000F0B583B005686E6D7368032100222846E3
:10CEA000019298470C4F386A841C7368032102AAC8
:10CEB00028469847002808D402A88078800707D41D
:10CEC000386AA042F1DD019803E00198C04300E018
:0CCED000012003B0F0BDC046200E002081
:10CEDC00F0B589B00C4607460668706D059038466B
:10CEEC0000F06CF8002856D40120044004943D4610
:10CEFC005C352B8842070192294C384621460BF0B1
:10CF0C008FFA0696059E7369032102911F220698DB
:10CF1C0098476B88049DC034039738462146019A84
:10CF2C000BF07EFA7368002106980A4698477368DE
:10CF3C0008AA0698029C214698477368069E07AA81
:10CF4C00304621469847E800164C07190898000708
:10CF5C00C00F854205D005984369002130463A46FA
:10CF6C009847A01D0740059C6369002130463A464E
:10CF7C009847A16A304688470B480068002801D0C2
:10CF8C0000F014F8039C20460CF09EFD002804D4FD
:10CF9C008334257001E00020C04309B0F0BDC046C9
:10CFAC0030ED00E003005FA0600D002008B4024BE0
:0CCFBC009C4608BC6047C0464D10002099
:10CFC80070B504468420205C002813D0204600F069
:10CFD800F9F82646083630460BF031FC00250028C3
:10CFE8000AD430460BF02AFC054920462A460CF0A4
:10CFF800DFFD02E0002500E0ED43284670BDC04695
:04D0080050EF00E005
:10D00C00F0B581B0044605686E6DFFF7D7FF0028B8
:10D01C0021D45C20235A01204207114920460BF0F1
:10D02C00FFF973690F4A0C3228460321984773693C
:10D03C000C4A0A322846032198472046FFF722FF64
:10D04C00314606464B6928460321064A9847204636
:10D05C000CF03AFD01E00020C643304601B0F0BDB3
:08D06C00F0ED00E003005FA0FD
:10D07400F0B589B01C4615460E465E21435A076832
:10D08400796D079101214A0724490BF0CDF900215C
:10D09400C94300283DD40191049505943D46204F91
:10D0A400069503963278079C6369012128469847C0
:10D0B4006368002128460A4698473E6AC8362046D7
:10D0C4004368002408AD069821462A469847A87864
:10D0D400C00704D1386AB0420798F1DD17E0079E13
:10D0E400736802210291069D284622469847736878
:10D0F40028460299049E324698470598401E361DDC
:10D104000496039E761C05900028CAD102E0019C77
:10D1140000E00C46204609B0F0BDC046F0ED00E04A
:04D12400200E0020B9
:10D12800F0B587B01D46039202915E21435A01680B
:10D138000491496D05910124620720490BF072F9A9
:10D148000021C943002835D400910195260403998C
:10D15800029D03910A68059C63690221049F384671
:10D16800984702952A7832436369012138469847DF
:10D178006368002138460A469847114F3D6AC8350A
:10D1880005984368002406AA0498214698470698FB
:10D19800304203D1386AA842F2DD09E00198401E06
:10D1A8000399091D029D6D1C01900028D1D102E050
:10D1B800009C00E00C46204607B0F0BDF0ED00E012
:04D1C800200E002015
:10D1CC00F0B585B00446C069002868D120462C30E3
:10D1DC002146843103900C30606322463032029237
:10D1EC0009780122002901922AD000220492256894
:10D1FC006F6D00972B48011D20460CF0D7FC03984F
:10D20C00038E01204207204626490BF009F97B6862
:10D21C00032728463946002298470098436804AAF9
:10D22C0028463946984704990F401025BD40606B3D
:10D23C000A01520C571CC904890D491C009102E0CB
:10D24C0020252F460092019E0670266328460BF07F
:10D25C00A1FE616BC87038460BF09CFE616B487088
:10D26C0000980BF097FE616B887028460BF092FECD
:10D27C00054620466130A06230020BF08BFE03990C
:10D28C004D700870204628300021074A074BA460D7
:10D29C00E26023616161A161E0610298206205B0E6
:10D2AC00F0BDC04680ED00E0F5D300006DD4000069
:10D2BC00F0B587B0069107460F210C9D2E460E4007
:10D2CC00281601403C680394646D0494059315D0B2
:10D2DC0002920023082945D3009307210840690BCB
:10D2EC0018230B40C01803063846069F39462A46B9
:10D2FC00FFF7E0FC656B0320019041E03B6D012AD8
:10D30C0032D13749069888422ED1022E2CD105985D
:10D31C000D460BF0E2FD06905C203B5A3C68606DBC
:10D32C00059001267207384629460BF079F8002142
:10D33C00CD4300282BD10496059F7B6907212046FD
:10D34C00069A984700282646304623D4B96A88475F
:10D35C0006984007304620D43B68032100229847AA
:10D36C00049D14E0DD4312E0002400940292384640
:10D37C00069F39462A46FFF79DFC0498456B01949D
:10D38C00009603983946029A059BA84705462846FD
:10D39C0007B0F0BDF9698847F9E7396A8847022078
:10D3AC0009F0F0FB0F4D3C462F6A23680321002245
:10D3BC003046984700280498E8D5394637464B2024
:10D3CC0000010E18286AB042CADC642009F0DAFBAE
:10D3DC00236803210022384698470028F2D4BFE77F
:08D3EC000CED00E0200E002012
:10D3F400F0B583B08421415C00292ED001465C3114
:10D404000468656D0B8817496431012252070BF0DB
:10D414000BF86B6803210026204632469847019595
:10D424006B6802AD204603212A4698472878800776
:10D4340014D5019E7369012120460A4A98477368EE
:10D444000321002220469847736802AA204603213C
:10D4540098470298C003C60F00E00026304603B088
:08D46400F0BDC04614ED00E02C
:10D46C0010B58424045D002C0AD0CC78A2408978B5
:10D47C002024611A8B40134302491A460CF096FB88
:08D48C00002010BD74EF00E068
:10D49400002901D00020704700487047799C0100A2
:10D4A400F0B582B0074601250020C043002B07D009
:10D4B400012B03D0022B33D11B4C09E0EC0707E00E
:10D4C4003C6C184EB44202D02124240600E02C0601
:10D4D40000920191AA0739463E69B70217402743D3
:10D4E4005740320202D50322D2061743720202D5F4
:10D4F4000522920617436A06350115403D4332035F
:10D50400019A05D5497F002902D1072189068D4357
:10D51400032A01D1022B03D10098000128431043B0
:0CD5240002B0F0BDFF00010E00600030FE
:10D53000F0B583B00F4605462C202958CEB2FF2EF9
:10D5400004D0FF229143AA6991420BD0001D3C28D0
:10D55000F3D1287F0D210C020028019704D0274623
:10D56000F03702E0002051E0F027E96800291ED0E2
:10D570000028214600D100216A680A43686D0369CA
:10D580000226284631469847AA683243686D4369A7
:10D59000002128469847AA693A43686D43690121EA
:10D5A00028469847287F002804D0103403E0AA6951
:10D5B0003A4302E010246A682243019F686D0369C0
:10D5C00002212846984700200290686DC368032610
:10D5D00002AA2846314698470F214B03029A13406E
:10D5E00001200404A34206D10A40511E042902D896
:10D5F0008900084A56582C216A5CFF2A03D0091D6D
:10D600003C29F9D102E0AA6932436A503E6003B076
:08D61000F0BDC04644720100A8
:10D6180070B50546254E3468002C09D021463C31AA
:10D62800142228460BF048FF00283AD0A46DF3E7EF
:10D6380004F0B6FD04468008482801D80AF05AFCD0
:10D648001B49204604F00AFE002813D0044649204E
:10D658008100204609F08AFB2C20FF212150001D63
:10D668003C28FAD1A868072801D0002806D10AF07A
:10D6780041FC09E00AF03EFC002415E00D48606515
:10D688006021204604F00EFE20463C3006CD06C040
:10D698000ECD0EC0606DC16A204688473068A0650F
:10D6A8003460E06D401CE065204670BDB00C002081
:08D6B8009DA70100587201005A
:10D6C00080B5C16D491EC16500D080BD094B0022E7
:10D6D00011461A68002A03D0134658338242F7D104
:10D6E000002901D0583100E00249826D0A6004F03F
:08D6F000CDFD80BDB00C00204F
:10D6F800F0B593B01190002A00D1EFE01E46154610
:10D70800189C784A7848002C0B920E9200D00E9004
:10D718000127012C00D038460691002C00D00B9030
:10D72800E01E4142414102910021384605912246BE
:10D7380009F084FA0D90032C01D0224600E0022261
:10D7480019980390384605990C9209F077FA0990D0
:10D7580078071090A7400A97059A11980069D14355
:10D768000191069B0F9410990842294607D11198F8
:10D7780040699843E040401C854200D30146079128
:10D7880005921198877F069319462246039B0AF053
:10D79800AAFF012C0896049531D8002F2FD0002815
:10D7A80000D59AE0079F069A0F9C3578002C1292B4
:10D7B80009D00320114601408243501A811C707819
:10D7C8000002451901E003215140052002F0D8F973
:10D7D80004460E9845430720294602F0D1F9204314
:10D7E8003FD41198006910990842129A01D10A98F9
:10D7F80012180F9C0D9836187F1ED6D134E00028D9
:10D808006BD4079F029887400C9A022A3D460DD197
:10D81800032030400AD1012F08D93046394602F09A
:10D8280091FA002859D40446002529E03178002AC5
:10D838000AD0707800024118012A05D0F078000655
:10D84800B2781204101841180B984143072002F0CF
:10D8580097F9040012D4099836186D1E0C9AE5D170
:10D868000EE002F07BF90F9C02F054F9032000212E
:10D8780002F0FAF90799C81B0F4611E002F06EF999
:10D8880002F048F9002C05D40320002102F0ECF93D
:10D89800002820D40298C740C540781B0F9C079FDA
:10D8A800049D0699059A002813D48218B84215D108
:10D8B8000E463946A14011980069109B184201D0C4
:10D8C800334600E07318ED1B089E7618002D05D02E
:10D8D80049E7024602E002F041F9019A104613B006
:0CD8E800F0BDC04601010101010001007B
:10D8F400F0B58FB01F460B920A9104460CF094F9D0
:10D904003A20205C25463A350021099100280895E3
:10D9140046D0934A3A40159E149B0D200007394681
:10D924000140814219D10B9FFD085AD02069E16959
:10D93400096B069103210A43009201960A992A462B
:10D94400069DA847050000D5D7E0E8003A1A0998D3
:10D9540000283D4600D0F0E0FFE00A98C007079297
:10D9640046D00B98002845D02069E1690D6B0092E0
:10D97400019601220A990693A847050000D5BCE048
:10D984000B98421B012D00D08CE00A98451C069B85
:10D994005B1C854230D2606B401C606300252BE029
:10D9A400206B0168002908D00D9720690C900CA801
:10D9B40088470221C9430842ABD12069E169C9699A
:10D9C400884701212970012808D10991206B4168F9
:10D9D40000299ED00CA8884700289AD50B9A154692
:10D9E400ABE00022D5430998002800D0A5E0B4E0BC
:10D9F4000B9A00E000220A9D7800059600D582E08B
:10DA0400A80724D5022A22D304922069E169096B6C
:10DA14000A913246012607993143009101920395F8
:10DA24002946324606930A9DA847050065D4680036
:10DA3400049A121A012D63D103998D1C069B9B1C19
:10DA4400F043814202D3606B401C6063059E002F4B
:10DA54002AD4042A28D32069E169096B0A91022196
:10DA64003746079E3143009101979608049529464D
:10DA74001746324606930A9DA84705003DD4A800E0
:10DA84003A1AB5423CD11146032087430498C5197C
:10DA9400069BDB19854202D2606B401C6063059EC5
:10DAA4000F4602E0054629E01746079A022F29D3BC
:10DAB40020690690E169086B0A90012011460390E1
:10DAC4000143009101967E08069804952946324642
:10DAD40006930A9DA84705000FD468003A1AB54278
:10DAE4000ED1039887430498C519069BDB19854218
:10DAF40009D2606B401C606305E00022099E1AE0B5
:10DB04000B9DFBE73A46099E0B98002A12D0206928
